{
  "_format": "hh-sol-artifact-1",
  "contractName": "ImageGuessGame",
  "sourceName": "contracts/ImageGuessGame.sol",
  "abi": [
    {
      "inputs": [
        {
          "internalType": "uint256",
          "name": "_entryFee",
          "type": "uint256"
        }
      ],
      "stateMutability": "nonpayable",
      "type": "constructor"
    },
    {
      "anonymous": false,
      "inputs": [
        {
          "indexed": true,
          "internalType": "uint256",
          "name": "challengeId",
          "type": "uint256"
        },
        {
          "indexed": false,
          "internalType": "string",
          "name": "imageURL",
          "type": "string"
        },
        {
          "indexed": false,
          "internalType": "uint256",
          "name": "prizePool",
          "type": "uint256"
        }
      ],
      "name": "ChallengeCreated",
      "type": "event"
    },
    {
      "anonymous": false,
      "inputs": [
        {
          "indexed": true,
          "internalType": "uint256",
          "name": "challengeId",
          "type": "uint256"
        },
        {
          "indexed": true,
          "internalType": "address",
          "name": "winner",
          "type": "address"
        },
        {
          "indexed": false,
          "internalType": "uint256",
          "name": "prizeAmount",
          "type": "uint256"
        },
        {
          "indexed": false,
          "internalType": "uint8",
          "name": "position",
          "type": "uint8"
        }
      ],
      "name": "ChallengeWinner",
      "type": "event"
    },
    {
      "anonymous": false,
      "inputs": [
        {
          "indexed": true,
          "internalType": "uint256",
          "name": "challengeId",
          "type": "uint256"
        },
        {
          "indexed": true,
          "internalType": "address",
          "name": "user",
          "type": "address"
        },
        {
          "indexed": false,
          "internalType": "uint256[2]",
          "name": "guessCoordinates",
          "type": "uint256[2]"
        },
        {
          "indexed": false,
          "internalType": "uint256",
          "name": "timestamp",
          "type": "uint256"
        },
        {
          "indexed": false,
          "internalType": "uint256",
          "name": "timeLeft",
          "type": "uint256"
        }
      ],
      "name": "GuessSubmitted",
      "type": "event"
    },
    {
      "anonymous": false,
      "inputs": [
        {
          "indexed": true,
          "internalType": "uint256",
          "name": "challengeId",
          "type": "uint256"
        },
        {
          "indexed": false,
          "internalType": "string",
          "name": "privateImageURL",
          "type": "string"
        }
      ],
      "name": "ImageRevealed",
      "type": "event"
    },
    {
      "anonymous": false,
      "inputs": [],
      "name": "NoMoreChallengesFound",
      "type": "event"
    },
    {
      "inputs": [
        {
          "internalType": "address",
          "name": "_admin",
          "type": "address"
        }
      ],
      "name": "addAdmin",
      "outputs": [],
      "stateMutability": "nonpayable",
      "type": "function"
    },
    {
      "inputs": [
        {
          "internalType": "uint256",
          "name": "",
          "type": "uint256"
        },
        {
          "internalType": "uint256",
          "name": "",
          "type": "uint256"
        }
      ],
      "name": "challengeWinners",
      "outputs": [
        {
          "internalType": "address",
          "name": "",
          "type": "address"
        }
      ],
      "stateMutability": "view",
      "type": "function"
    },
    {
      "inputs": [
        {
          "components": [
            {
              "internalType": "string",
              "name": "publicImageURL",
              "type": "string"
            },
            {
              "internalType": "string",
              "name": "privateImageURL",
              "type": "string"
            },
            {
              "internalType": "uint256[2]",
              "name": "topLeft",
              "type": "uint256[2]"
            },
            {
              "internalType": "uint256[2]",
              "name": "bottomRight",
              "type": "uint256[2]"
            },
            {
              "internalType": "uint256[2]",
              "name": "centerPoint",
              "type": "uint256[2]"
            }
          ],
          "internalType": "struct ImageGuessGame.ChallengeCreationParams",
          "name": "params",
          "type": "tuple"
        }
      ],
      "name": "createChallenge",
      "outputs": [],
      "stateMutability": "nonpayable",
      "type": "function"
    },
    {
      "inputs": [],
      "name": "currentChallengeIndex",
      "outputs": [
        {
          "internalType": "uint256",
          "name": "",
          "type": "uint256"
        }
      ],
      "stateMutability": "view",
      "type": "function"
    },
    {
      "inputs": [],
      "name": "entryFee",
      "outputs": [
        {
          "internalType": "uint256",
          "name": "",
          "type": "uint256"
        }
      ],
      "stateMutability": "view",
      "type": "function"
    },
    {
      "inputs": [
        {
          "internalType": "address",
          "name": "_player",
          "type": "address"
        }
      ],
      "name": "getGuessCount",
      "outputs": [
        {
          "internalType": "uint256",
          "name": "",
          "type": "uint256"
        },
        {
          "internalType": "uint256",
          "name": "",
          "type": "uint256"
        }
      ],
      "stateMutability": "view",
      "type": "function"
    },
    {
      "inputs": [
        {
          "internalType": "uint256",
          "name": "challengeId",
          "type": "uint256"
        }
      ],
      "name": "getRevealedChallengeDetails",
      "outputs": [
        {
          "components": [
            {
              "internalType": "address",
              "name": "guesser",
              "type": "address"
            },
            {
              "internalType": "uint256",
              "name": "distance",
              "type": "uint256"
            }
          ],
          "internalType": "struct ImageGuessGame.GuessDetails[3]",
          "name": "topGuessesArray",
          "type": "tuple[3]"
        },
        {
          "internalType": "string",
          "name": "privateImageUrl",
          "type": "string"
        }
      ],
      "stateMutability": "view",
      "type": "function"
    },
    {
      "inputs": [],
      "name": "owner",
      "outputs": [
        {
          "internalType": "address",
          "name": "",
          "type": "address"
        }
      ],
      "stateMutability": "view",
      "type": "function"
    },
    {
      "inputs": [
        {
          "internalType": "address",
          "name": "_admin",
          "type": "address"
        }
      ],
      "name": "removeAdmin",
      "outputs": [],
      "stateMutability": "nonpayable",
      "type": "function"
    },
    {
      "inputs": [
        {
          "internalType": "uint256",
          "name": "_challengeId",
          "type": "uint256"
        },
        {
          "internalType": "uint256[2]",
          "name": "_guessCoordinates",
          "type": "uint256[2]"
        }
      ],
      "name": "submitGuess",
      "outputs": [],
      "stateMutability": "payable",
      "type": "function"
    },
    {
      "inputs": [
        {
          "internalType": "uint256",
          "name": "_challengeId",
          "type": "uint256"
        }
      ],
      "name": "viewMyGuesses",
      "outputs": [
        {
          "internalType": "uint256[2][]",
          "name": "coordinates",
          "type": "uint256[2][]"
        },
        {
          "internalType": "uint256[]",
          "name": "timesElapsed",
          "type": "uint256[]"
        }
      ],
      "stateMutability": "view",
      "type": "function"
    }
  ],
  "bytecode": "0x60806040523480156200001157600080fd5b5060405162002f5f38038062002f5f833981810160405281019062000037919062000148565b33600360006101000a81548173ffffffffffffffffffffffffffffffffffffffff021916908373ffffffffffffffffffffffffffffffffffffffff160217905550600160066000600360009054906101000a900473ffffffffffffffffffffffffffffffffffffffff1673ffffffffffffffffffffffffffffffffffffffff1673ffffffffffffffffffffffffffffffffffffffff16815260200190815260200160002060006101000a81548160ff021916908315150217905550806002819055506000600181905550506200017a565b600080fd5b6000819050919050565b62000122816200010d565b81146200012e57600080fd5b50565b600081519050620001428162000117565b92915050565b60006020828403121562000161576200016062000108565b5b6000620001718482850162000131565b91505092915050565b612dd5806200018a6000396000f3fe60806040526004361061009c5760003560e01c8063704802751161006457806370480275146101785780637460ddee146101a15780637e621ac4146101de5780638da5cb5b1461021c578063cc0b07a714610247578063eebcec7e146102725761009c565b806304b1142c146100a1578063072ea61c146100df5780631785f53c1461010a5780632541dabc1461013357806332d3b3fc1461014f575b600080fd5b3480156100ad57600080fd5b506100c860048036038101906100c39190611b4f565b6102b0565b6040516100d6929190611b95565b60405180910390f35b3480156100eb57600080fd5b506100f46103c8565b6040516101019190611bbe565b60405180910390f35b34801561011657600080fd5b50610131600480360381019061012c9190611b4f565b6103ce565b005b61014d60048036038101906101489190611d4c565b6104b9565b005b34801561015b57600080fd5b5061017660048036038101906101719190611f10565b610926565b005b34801561018457600080fd5b5061019f600480360381019061019a9190611b4f565b610c73565b005b3480156101ad57600080fd5b506101c860048036038101906101c39190611f59565b610d5e565b6040516101d59190611fa8565b60405180910390f35b3480156101ea57600080fd5b5061020560048036038101906102009190611fc3565b610dac565b6040516102139291906121e1565b60405180910390f35b34801561022857600080fd5b50610231610ff2565b60405161023e9190611fa8565b60405180910390f35b34801561025357600080fd5b5061025c611018565b6040516102699190611bbe565b60405180910390f35b34801561027e57600080fd5b5061029960048036038101906102949190611fc3565b61101e565b6040516102a7929190612371565b60405180910390f35b600080600660003373ffffffffffffffffffffffffffffffffffffffff1673ffffffffffffffffffffffffffffffffffffffff16815260200190815260200160002060009054906101000a900460ff1661033f576040517f08c379a000000000000000000000000000000000000000000000000000000000815260040161033690612413565b60405180910390fd5b600460008473ffffffffffffffffffffffffffffffffffffffff1673ffffffffffffffffffffffffffffffffffffffff16815260200190815260200160002054600560008573ffffffffffffffffffffffffffffffffffffffff1673ffffffffffffffffffffffffffffffffffffffff1681526020019081526020016000205491509150915091565b60025481565b600360009054906101000a900473ffffffffffffffffffffffffffffffffffffffff1673ffffffffffffffffffffffffffffffffffffffff163373ffffffffffffffffffffffffffffffffffffffff161461045e576040517f08c379a0000000000000000000000000000000000000000000000000000000008152600401610455906124a5565b60405180910390fd5b6000600660008373ffffffffffffffffffffffffffffffffffffffff1673ffffffffffffffffffffffffffffffffffffffff16815260200190815260200160002060006101000a81548160ff02191690831515021790555050565b60025434146104fd576040517f08c379a00000000000000000000000000000000000000000000000000000000081526004016104f490612511565b60405180910390fd5b6001548214610541576040517f08c379a00000000000000000000000000000000000000000000000000000000081526004016105389061257d565b60405180910390fd5b60008083815481106105565761055561259d565b5b90600052602060002090600c020190506009600084815260200190815260200160002060003373ffffffffffffffffffffffffffffffffffffffff1673ffffffffffffffffffffffffffffffffffffffff1681526020019081526020016000208290806001815401808255809150506001900390600052602060002090600202016000909190919091509060026105ee929190611a23565b50600a600084815260200190815260200160002060003373ffffffffffffffffffffffffffffffffffffffff1673ffffffffffffffffffffffffffffffffffffffff1681526020019081526020016000204290806001815401808255809150506001900390600052602060002001600090919091909150556001600460003373ffffffffffffffffffffffffffffffffffffffff1673ffffffffffffffffffffffffffffffffffffffff16815260200190815260200160002060008282546106b691906125fb565b92505081905550600061070883836006016002806020026040519081016040528092919082600280156106fe576020028201915b8154815260200190600101908083116106ea575b5050505050611238565b9050600060405180604001604052803373ffffffffffffffffffffffffffffffffffffffff16815260200183815250905061074385826113d7565b3483600901600082825461075791906125fb565b9250508190555082600b01544211156108b65761077385611733565b60008360080160006101000a81548160ff02191690831515021790555060018360080160016101000a81548160ff021916908315150217905550847fdef00e5b410cba4402844ad2fb7c6b40ff9e90a996c1e92bdbf671faa9f9773a846001016040516107e09190612728565b60405180910390a26000805490506001866107fb91906125fb565b101561088457600180600082825461081391906125fb565b92505081905550600080600154815481106108315761083061259d565b5b90600052602060002090600c0201905060018160080160006101000a81548160ff0219169083151502179055504281600a0181905550620151804261087691906125fb565b81600b0181905550506108b1565b7f899d01772826b484a93fc8cb11e3cbeeac6f953e6e260d9d2249ed9dbb7168f760405160405180910390a15b61091f565b60004284600b01546108c8919061274a565b90503373ffffffffffffffffffffffffffffffffffffffff16867f908654bcc6be11489964d59f095aa5a2b8b3eebc93fd8a0e4a39c6579f06205d874285604051610915939291906127e0565b60405180910390a3505b5050505050565b600660003373ffffffffffffffffffffffffffffffffffffffff1673ffffffffffffffffffffffffffffffffffffffff16815260200190815260200160002060009054906101000a900460ff166109b2576040517f08c379a00000000000000000000000000000000000000000000000000000000081526004016109a990612413565b60405180910390fd5b600060405180610140016040528083600001518152602001836020015181526020018360400151815260200183606001518152602001836080015181526020016000151581526020016000151581526020016000815260200160008152602001600081525090806001815401808255809150506001900390600052602060002090600c02016000909190919091506000820151816000019081610a5591906129ae565b506020820151816001019081610a6b91906129ae565b50604082015181600201906002610a83929190611a23565b50606082015181600401906002610a9b929190611a23565b50608082015181600601906002610ab3929190611a23565b5060a08201518160080160006101000a81548160ff02191690831515021790555060c08201518160080160016101000a81548160ff02191690831515021790555060e0820151816009015561010082015181600a015561012082015181600b0155505060016000805490501480610b5c5750600060015481548110610b3b57610b3a61259d565b5b90600052602060002090600c020160080160009054906101000a900460ff16155b15610c205760006001600080549050610b75919061274a565b9050600160008281548110610b8d57610b8c61259d565b5b90600052602060002090600c020160080160006101000a81548160ff0219169083151502179055504260008281548110610bca57610bc961259d565b5b90600052602060002090600c0201600a01819055506201518042610bee91906125fb565b60008281548110610c0257610c0161259d565b5b90600052602060002090600c0201600b018190555080600181905550505b6001600080549050610c32919061274a565b7fd9e1dd888325e72084cbcf9634262dfb2ba49c6eda196148e4b9c4c44d14678b82600001516000604051610c68929190612abb565b60405180910390a250565b600360009054906101000a900473ffffffffffffffffffffffffffffffffffffffff1673ffffffffffffffffffffffffffffffffffffffff163373ffffffffffffffffffffffffffffffffffffffff1614610d03576040517f08c379a0000000000000000000000000000000000000000000000000000000008152600401610cfa906124a5565b60405180910390fd5b6001600660008373ffffffffffffffffffffffffffffffffffffffff1673ffffffffffffffffffffffffffffffffffffffff16815260200190815260200160002060006101000a81548160ff02191690831515021790555050565b60076020528160005260406000208181548110610d7a57600080fd5b906000526020600020016000915091509054906101000a900473ffffffffffffffffffffffffffffffffffffffff1681565b6060806000805490508310610df6576040517f08c379a0000000000000000000000000000000000000000000000000000000008152600401610ded90612b37565b60405180910390fd5b6000600a600085815260200190815260200160002060003373ffffffffffffffffffffffffffffffffffffffff1673ffffffffffffffffffffffffffffffffffffffff16815260200190815260200160002090506000818054905067ffffffffffffffff811115610e6a57610e69611c1b565b5b604051908082528060200260200182016040528015610e985781602001602082028036833780820191505090505b50905060005b8280549050811015610f0b576000838281548110610ebf57610ebe61259d565b5b906000526020600020015442610ed5919061274a565b905080838381518110610eeb57610eea61259d565b5b602002602001018181525050508080610f0390612b57565b915050610e9e565b506009600086815260200190815260200160002060003373ffffffffffffffffffffffffffffffffffffffff1673ffffffffffffffffffffffffffffffffffffffff1681526020019081526020016000208181805480602002602001604051908101604052809291908181526020016000905b82821015610fe15783829060005260206000209060020201600280602002604051908101604052809291908260028015610fcd576020028201915b815481526020019060010190808311610fb9575b505050505081526020019060010190610f7e565b505050509150935093505050915091565b600360009054906101000a900473ffffffffffffffffffffffffffffffffffffffff1681565b60015481565b611026611a63565b6060600080549050831061106f576040517f08c379a000000000000000000000000000000000000000000000000000000000815260040161106690612b37565b60405180910390fd5b60008084815481106110845761108361259d565b5b90600052602060002090600c020190508060080160019054906101000a900460ff166110e5576040517f08c379a00000000000000000000000000000000000000000000000000000000081526004016110dc90612c11565b60405180910390fd5b600860008581526020019081526020016000208160010181600380602002604051908101604052809291906000905b8282101561119c578382600202016040518060400160405290816000820160009054906101000a900473ffffffffffffffffffffffffffffffffffffffff1673ffffffffffffffffffffffffffffffffffffffff1673ffffffffffffffffffffffffffffffffffffffff16815260200160018201548152505081526020019060010190611114565b5050505091508080546111ae9061265e565b80601f01602080910402602001604051908101604052809291908181526020018280546111da9061265e565b80156112275780601f106111fc57610100808354040283529160200191611227565b820191906000526020600020905b81548152906001019060200180831161120a57829003601f168201915b505050505090509250925050915091565b6000808260006002811061124f5761124e61259d565b5b6020020151846000600281106112685761126761259d565b5b6020020151116112b357836000600281106112865761128561259d565b5b60200201518360006002811061129f5761129e61259d565b5b60200201516112ae919061274a565b6112f0565b826000600281106112c7576112c661259d565b5b6020020151846000600281106112e0576112df61259d565b5b60200201516112ef919061274a565b5b90506000836001600281106113085761130761259d565b5b6020020151856001600281106113215761132061259d565b5b60200201511161136c578460016002811061133f5761133e61259d565b5b6020020151846001600281106113585761135761259d565b5b6020020151611367919061274a565b6113a9565b836001600281106113805761137f61259d565b5b6020020151856001600281106113995761139861259d565b5b60200201516113a8919061274a565b5b905080816113b79190612c31565b82836113c39190612c31565b6113cd91906125fb565b9250505092915050565b600060086000848152602001908152602001600020905060006001905060005b600381101561152057836000015173ffffffffffffffffffffffffffffffffffffffff1683826003811061142e5761142d61259d565b5b6002020160000160009054906101000a900473ffffffffffffffffffffffffffffffffffffffff1673ffffffffffffffffffffffffffffffffffffffff160361150d578281600381106114845761148361259d565b5b60020201600101548460200151101561150457838382600381106114ab576114aa61259d565b5b6002020160008201518160000160006101000a81548173ffffffffffffffffffffffffffffffffffffffff021916908373ffffffffffffffffffffffffffffffffffffffff160217905550602082015181600101559050505b60009150611520565b808061151890612b57565b9150506113f7565b50801561172d5760005b600381101561172b57600073ffffffffffffffffffffffffffffffffffffffff1683826003811061155e5761155d61259d565b5b6002020160000160009054906101000a900473ffffffffffffffffffffffffffffffffffffffff1673ffffffffffffffffffffffffffffffffffffffff1614806115c557508281600381106115b6576115b561259d565b5b60020201600101548460200151105b15611718576000600160036115da919061274a565b90505b818111156116a657836001826115f3919061274a565b600381106116045761160361259d565b5b6002020184826003811061161b5761161a61259d565b5b600202016000820160009054906101000a900473ffffffffffffffffffffffffffffffffffffffff168160000160006101000a81548173ffffffffffffffffffffffffffffffffffffffff021916908373ffffffffffffffffffffffffffffffffffffffff16021790555060018201548160010155905050808061169e90612c73565b9150506115dd565b50838382600381106116bb576116ba61259d565b5b6002020160008201518160000160006101000a81548173ffffffffffffffffffffffffffffffffffffffff021916908373ffffffffffffffffffffffffffffffffffffffff1602179055506020820151816001015590505061172b565b808061172390612b57565b91505061152a565b505b50505050565b60008082815481106117485761174761259d565b5b90600052602060002090600c0201600901549050600060405180606001604052806064603c856117789190612c31565b6117829190612ccb565b81526020016064601e856117969190612c31565b6117a09190612ccb565b81526020016064600a856117b49190612c31565b6117be9190612ccb565b815250905060005b600860008581526020019081526020016000205060038160ff1610156119f357600073ffffffffffffffffffffffffffffffffffffffff16600860008681526020019081526020016000208260ff16600381106118265761182561259d565b5b6002020160000160009054906101000a900473ffffffffffffffffffffffffffffffffffffffff1673ffffffffffffffffffffffffffffffffffffffff16146119e057600860008581526020019081526020016000208160ff16600381106118915761189061259d565b5b6002020160000160009054906101000a900473ffffffffffffffffffffffffffffffffffffffff1673ffffffffffffffffffffffffffffffffffffffff166108fc838360ff16600381106118e8576118e761259d565b5b60200201519081150290604051600060405180830381858888f19350505050158015611918573d6000803e3d6000fd5b50600860008581526020019081526020016000208160ff16600381106119415761194061259d565b5b6002020160000160009054906101000a900473ffffffffffffffffffffffffffffffffffffffff1673ffffffffffffffffffffffffffffffffffffffff16847fbdedb55c2d951cadfc4dac45910010e1291daf52cd715aaea0a9c326c922d745848460ff16600381106119b7576119b661259d565b5b60200201516001856119c99190612d09565b6040516119d7929190612d4d565b60405180910390a35b80806119eb90612d76565b9150506117c6565b506000808481548110611a0957611a0861259d565b5b90600052602060002090600c020160090181905550505050565b8260028101928215611a52579160200282015b82811115611a51578251825591602001919060010190611a36565b5b509050611a5f9190611a90565b5090565b60405180606001604052806003905b611a7a611aad565b815260200190600190039081611a725790505090565b5b80821115611aa9576000816000905550600101611a91565b5090565b6040518060400160405280600073ffffffffffffffffffffffffffffffffffffffff168152602001600081525090565b6000604051905090565b600080fd5b600080fd5b600073ffffffffffffffffffffffffffffffffffffffff82169050919050565b6000611b1c82611af1565b9050919050565b611b2c81611b11565b8114611b3757600080fd5b50565b600081359050611b4981611b23565b92915050565b600060208284031215611b6557611b64611ae7565b5b6000611b7384828501611b3a565b91505092915050565b6000819050919050565b611b8f81611b7c565b82525050565b6000604082019050611baa6000830185611b86565b611bb76020830184611b86565b9392505050565b6000602082019050611bd36000830184611b86565b92915050565b611be281611b7c565b8114611bed57600080fd5b50565b600081359050611bff81611bd9565b92915050565b600080fd5b6000601f19601f8301169050919050565b7f4e487b7100000000000000000000000000000000000000000000000000000000600052604160045260246000fd5b611c5382611c0a565b810181811067ffffffffffffffff82111715611c7257611c71611c1b565b5b80604052505050565b6000611c85611add565b9050611c918282611c4a565b919050565b600067ffffffffffffffff821115611cb157611cb0611c1b565b5b602082029050919050565b600080fd5b6000611cd4611ccf84611c96565b611c7b565b90508060208402830185811115611cee57611ced611cbc565b5b835b81811015611d175780611d038882611bf0565b845260208401935050602081019050611cf0565b5050509392505050565b600082601f830112611d3657611d35611c05565b5b6002611d43848285611cc1565b91505092915050565b60008060608385031215611d6357611d62611ae7565b5b6000611d7185828601611bf0565b9250506020611d8285828601611d21565b9150509250929050565b600080fd5b600080fd5b600080fd5b600067ffffffffffffffff821115611db657611db5611c1b565b5b611dbf82611c0a565b9050602081019050919050565b82818337600083830152505050565b6000611dee611de984611d9b565b611c7b565b905082815260208101848484011115611e0a57611e09611d96565b5b611e15848285611dcc565b509392505050565b600082601f830112611e3257611e31611c05565b5b8135611e42848260208601611ddb565b91505092915050565b60006101008284031215611e6257611e61611d8c565b5b611e6c60a0611c7b565b9050600082013567ffffffffffffffff811115611e8c57611e8b611d91565b5b611e9884828501611e1d565b600083015250602082013567ffffffffffffffff811115611ebc57611ebb611d91565b5b611ec884828501611e1d565b6020830152506040611edc84828501611d21565b6040830152506080611ef084828501611d21565b60608301525060c0611f0484828501611d21565b60808301525092915050565b600060208284031215611f2657611f25611ae7565b5b600082013567ffffffffffffffff811115611f4457611f43611aec565b5b611f5084828501611e4b565b91505092915050565b60008060408385031215611f7057611f6f611ae7565b5b6000611f7e85828601611bf0565b9250506020611f8f85828601611bf0565b9150509250929050565b611fa281611b11565b82525050565b6000602082019050611fbd6000830184611f99565b92915050565b600060208284031215611fd957611fd8611ae7565b5b6000611fe784828501611bf0565b91505092915050565b600081519050919050565b600082825260208201905092915050565b6000819050602082019050919050565b600060029050919050565b600081905092915050565b6000819050919050565b61204581611b7c565b82525050565b6000612057838361203c565b60208301905092915050565b6000602082019050919050565b6120798161201c565b6120838184612027565b925061208e82612032565b8060005b838110156120bf5781516120a6878261204b565b96506120b183612063565b925050600181019050612092565b505050505050565b60006120d38383612070565b60408301905092915050565b6000602082019050919050565b60006120f782611ff0565b6121018185611ffb565b935061210c8361200c565b8060005b8381101561213d57815161212488826120c7565b975061212f836120df565b925050600181019050612110565b5085935050505092915050565b600081519050919050565b600082825260208201905092915050565b6000819050602082019050919050565b6000602082019050919050565b600061218e8261214a565b6121988185612155565b93506121a383612166565b8060005b838110156121d45781516121bb888261204b565b97506121c683612176565b9250506001810190506121a7565b5085935050505092915050565b600060408201905081810360008301526121fb81856120ec565b9050818103602083015261220f8184612183565b90509392505050565b600060039050919050565b600081905092915050565b6000819050919050565b61224181611b11565b82525050565b60408201600082015161225d6000850182612238565b506020820151612270602085018261203c565b50505050565b60006122828383612247565b60408301905092915050565b6000602082019050919050565b6122a481612218565b6122ae8184612223565b92506122b98261222e565b8060005b838110156122ea5781516122d18782612276565b96506122dc8361228e565b9250506001810190506122bd565b505050505050565b600081519050919050565b600082825260208201905092915050565b60005b8381101561232c578082015181840152602081019050612311565b60008484015250505050565b6000612343826122f2565b61234d81856122fd565b935061235d81856020860161230e565b61236681611c0a565b840191505092915050565b600060e082019050612386600083018561229b565b81810360c08301526123988184612338565b90509392505050565b7f4f6e6c792061646d696e732063616e2063616c6c20746869732066756e63746960008201527f6f6e000000000000000000000000000000000000000000000000000000000000602082015250565b60006123fd6022836122fd565b9150612408826123a1565b604082019050919050565b6000602082019050818103600083015261242c816123f0565b9050919050565b7f4f6e6c79206f776e65722063616e2063616c6c20746869732066756e6374696f60008201527f6e2e000000000000000000000000000000000000000000000000000000000000602082015250565b600061248f6022836122fd565b915061249a82612433565b604082019050919050565b600060208201905081810360008301526124be81612482565b9050919050565b7f496e636f727265637420656e747279206665652e000000000000000000000000600082015250565b60006124fb6014836122fd565b9150612506826124c5565b602082019050919050565b6000602082019050818103600083015261252a816124ee565b9050919050565b7f54686973206368616c6c656e6765206973206e6f74206163746976652e000000600082015250565b6000612567601d836122fd565b915061257282612531565b602082019050919050565b600060208201905081810360008301526125968161255a565b9050919050565b7f4e487b7100000000000000000000000000000000000000000000000000000000600052603260045260246000fd5b7f4e487b7100000000000000000000000000000000000000000000000000000000600052601160045260246000fd5b600061260682611b7c565b915061261183611b7c565b9250828201905080821115612629576126286125cc565b5b92915050565b7f4e487b7100000000000000000000000000000000000000000000000000000000600052602260045260246000fd5b6000600282049050600182168061267657607f821691505b6020821081036126895761268861262f565b5b50919050565b60008190508160005260206000209050919050565b600081546126b18161265e565b6126bb81866122fd565b945060018216600081146126d657600181146126ec5761271f565b60ff19831686528115156020028601935061271f565b6126f58561268f565b60005b83811015612717578154818901526001820191506020810190506126f8565b808801955050505b50505092915050565b6000602082019050818103600083015261274281846126a4565b905092915050565b600061275582611b7c565b915061276083611b7c565b9250828203905081811115612778576127776125cc565b5b92915050565b600081905092915050565b6127928161201c565b61279c818461277e565b92506127a782612032565b8060005b838110156127d85781516127bf878261204b565b96506127ca83612063565b9250506001810190506127ab565b505050505050565b60006080820190506127f56000830186612789565b6128026040830185611b86565b61280f6060830184611b86565b949350505050565b60006020601f8301049050919050565b600082821b905092915050565b6000600883026128647fffffffffffffffffffffffffffffffffffffffffffffffffffffffffffffffff82612827565b61286e8683612827565b95508019841693508086168417925050509392505050565b6000819050919050565b60006128ab6128a66128a184611b7c565b612886565b611b7c565b9050919050565b6000819050919050565b6128c583612890565b6128d96128d1826128b2565b848454612834565b825550505050565b600090565b6128ee6128e1565b6128f98184846128bc565b505050565b5b8181101561291d576129126000826128e6565b6001810190506128ff565b5050565b601f821115612962576129338161268f565b61293c84612817565b8101602085101561294b578190505b61295f61295785612817565b8301826128fe565b50505b505050565b600082821c905092915050565b600061298560001984600802612967565b1980831691505092915050565b600061299e8383612974565b9150826002028217905092915050565b6129b7826122f2565b67ffffffffffffffff8111156129d0576129cf611c1b565b5b6129da825461265e565b6129e5828285612921565b600060209050601f831160018114612a185760008415612a06578287015190505b612a108582612992565b865550612a78565b601f198416612a268661268f565b60005b82811015612a4e57848901518255600182019150602085019450602081019050612a29565b86831015612a6b5784890151612a67601f891682612974565b8355505b6001600288020188555050505b505050505050565b6000819050919050565b6000612aa5612aa0612a9b84612a80565b612886565b611b7c565b9050919050565b612ab581612a8a565b82525050565b60006040820190508181036000830152612ad58185612338565b9050612ae46020830184612aac565b9392505050565b7f4368616c6c656e676520646f6573206e6f742065786973742e00000000000000600082015250565b6000612b216019836122fd565b9150612b2c82612aeb565b602082019050919050565b60006020820190508181036000830152612b5081612b14565b9050919050565b6000612b6282611b7c565b91507fffffffffffffffffffffffffffffffffffffffffffffffffffffffffffffffff8203612b9457612b936125cc565b5b600182019050919050565b7f4368616c6c656e676520686173206e6f742073746172746564206f722068617360008201527f206e6f7420656e64656420796574000000000000000000000000000000000000602082015250565b6000612bfb602e836122fd565b9150612c0682612b9f565b604082019050919050565b60006020820190508181036000830152612c2a81612bee565b9050919050565b6000612c3c82611b7c565b9150612c4783611b7c565b9250828202612c5581611b7c565b91508282048414831517612c6c57612c6b6125cc565b5b5092915050565b6000612c7e82611b7c565b915060008203612c9157612c906125cc565b5b600182039050919050565b7f4e487b7100000000000000000000000000000000000000000000000000000000600052601260045260246000fd5b6000612cd682611b7c565b9150612ce183611b7c565b925082612cf157612cf0612c9c565b5b828204905092915050565b600060ff82169050919050565b6000612d1482612cfc565b9150612d1f83612cfc565b9250828201905060ff811115612d3857612d376125cc565b5b92915050565b612d4781612cfc565b82525050565b6000604082019050612d626000830185611b86565b612d6f6020830184612d3e565b9392505050565b6000612d8182612cfc565b915060ff8203612d9457612d936125cc565b5b60018201905091905056fea2646970667358221220e161a428670eeda6ae9c16c68cedc66c2e9969f000e5c1ff20f38044c681353e64736f6c63430008130033",
  "linkReferences": {},
  "deployedLinkReferences": {}
}