{"contracts/ImageGuessGame.sol":{"ImageGuessGame":{"abi":[{"inputs":[{"internalType":"uint256","name":"_entryFee","type":"uint256"}],"stateMutability":"nonpayable","type":"constructor"},{"anonymous":false,"inputs":[{"indexed":true,"internalType":"uint256","name":"challengeId","type":"uint256"},{"indexed":false,"internalType":"string","name":"imageURL","type":"string"},{"indexed":false,"internalType":"uint256","name":"prizePool","type":"uint256"}],"name":"ChallengeCreated","type":"event"},{"anonymous":false,"inputs":[{"indexed":true,"internalType":"uint256","name":"challengeId","type":"uint256"},{"indexed":true,"internalType":"address","name":"winner","type":"address"},{"indexed":false,"internalType":"uint256","name":"prizeAmount","type":"uint256"},{"indexed":false,"internalType":"uint8","name":"position","type":"uint8"}],"name":"ChallengeWinner","type":"event"},{"anonymous":false,"inputs":[{"indexed":true,"internalType":"uint256","name":"challengeId","type":"uint256"},{"indexed":true,"internalType":"address","name":"user","type":"address"},{"indexed":false,"internalType":"uint256[2]","name":"guessCoordinates","type":"uint256[2]"},{"indexed":false,"internalType":"uint256","name":"timestamp","type":"uint256"},{"indexed":false,"internalType":"uint256","name":"timeLeft","type":"uint256"}],"name":"GuessSubmitted","type":"event"},{"anonymous":false,"inputs":[{"indexed":true,"internalType":"uint256","name":"challengeId","type":"uint256"},{"indexed":false,"internalType":"string","name":"privateImageURL","type":"string"}],"name":"ImageRevealed","type":"event"},{"anonymous":false,"inputs":[],"name":"NoMoreChallengesFound","type":"event"},{"inputs":[{"internalType":"address","name":"_admin","type":"address"}],"name":"addAdmin","outputs":[],"stateMutability":"nonpayable","type":"function"},{"inputs":[{"internalType":"uint256","name":"","type":"uint256"},{"internalType":"uint256","name":"","type":"uint256"}],"name":"challengeWinners","outputs":[{"internalType":"address","name":"","type":"address"}],"stateMutability":"view","type":"function"},{"inputs":[{"components":[{"internalType":"string","name":"publicImageURL","type":"string"},{"internalType":"string","name":"privateImageURL","type":"string"},{"internalType":"uint256[2]","name":"topLeft","type":"uint256[2]"},{"internalType":"uint256[2]","name":"bottomRight","type":"uint256[2]"},{"internalType":"uint256[2]","name":"centerPoint","type":"uint256[2]"}],"internalType":"struct ImageGuessGame.ChallengeCreationParams","name":"params","type":"tuple"}],"name":"createChallenge","outputs":[],"stateMutability":"nonpayable","type":"function"},{"inputs":[],"name":"currentChallengeIndex","outputs":[{"internalType":"uint256","name":"","type":"uint256"}],"stateMutability":"view","type":"function"},{"inputs":[],"name":"entryFee","outputs":[{"internalType":"uint256","name":"","type":"uint256"}],"stateMutability":"view","type":"function"},{"inputs":[{"internalType":"uint256","name":"challengeId","type":"uint256"}],"name":"getChallengePublicInfo","outputs":[{"internalType":"string","name":"","type":"string"},{"internalType":"bool","name":"","type":"bool"},{"internalType":"bool","name":"","type":"bool"},{"internalType":"uint256","name":"","type":"uint256"},{"internalType":"uint256","name":"","type":"uint256"}],"stateMutability":"view","type":"function"},{"inputs":[{"internalType":"address","name":"_player","type":"address"}],"name":"getGuessCount","outputs":[{"internalType":"uint256","name":"","type":"uint256"},{"internalType":"uint256","name":"","type":"uint256"}],"stateMutability":"view","type":"function"},{"inputs":[{"internalType":"uint256","name":"challengeId","type":"uint256"}],"name":"getRevealedChallengeDetails","outputs":[{"components":[{"internalType":"address","name":"guesser","type":"address"},{"internalType":"uint256","name":"distance","type":"uint256"}],"internalType":"struct ImageGuessGame.GuessDetails[3]","name":"topGuessesArray","type":"tuple[3]"},{"internalType":"string","name":"privateImageUrl","type":"string"}],"stateMutability":"view","type":"function"},{"inputs":[],"name":"owner","outputs":[{"internalType":"address","name":"","type":"address"}],"stateMutability":"view","type":"function"},{"inputs":[{"internalType":"address","name":"_admin","type":"address"}],"name":"removeAdmin","outputs":[],"stateMutability":"nonpayable","type":"function"},{"inputs":[{"internalType":"uint256","name":"_challengeId","type":"uint256"},{"internalType":"uint256[2]","name":"_guessCoordinates","type":"uint256[2]"}],"name":"submitGuess","outputs":[],"stateMutability":"payable","type":"function"},{"inputs":[{"internalType":"uint256","name":"_challengeId","type":"uint256"}],"name":"viewMyGuesses","outputs":[{"internalType":"uint256[2][]","name":"coordinates","type":"uint256[2][]"},{"internalType":"uint256[]","name":"timesElapsed","type":"uint256[]"}],"stateMutability":"view","type":"function"}],"evm":{"bytecode":{"linkReferences":{},"object":"60806040523480156200001157600080fd5b506040516200316738038062003167833981810160405281019062000037919062000148565b33600360006101000a81548173ffffffffffffffffffffffffffffffffffffffff021916908373ffffffffffffffffffffffffffffffffffffffff160217905550600160066000600360009054906101000a900473ffffffffffffffffffffffffffffffffffffffff1673ffffffffffffffffffffffffffffffffffffffff1673ffffffffffffffffffffffffffffffffffffffff16815260200190815260200160002060006101000a81548160ff021916908315150217905550806002819055506000600181905550506200017a565b600080fd5b6000819050919050565b62000122816200010d565b81146200012e57600080fd5b50565b600081519050620001428162000117565b92915050565b60006020828403121562000161576200016062000108565b5b6000620001718482850162000131565b91505092915050565b612fdd806200018a6000396000f3fe6080604052600436106100a75760003560e01c80637460ddee116100645780637460ddee146101ac5780637e621ac4146101e95780638da5cb5b146102275780639046bbb514610252578063cc0b07a714610293578063eebcec7e146102be576100a7565b806304b1142c146100ac578063072ea61c146100ea5780631785f53c146101155780632541dabc1461013e57806332d3b3fc1461015a5780637048027514610183575b600080fd5b3480156100b857600080fd5b506100d360048036038101906100ce9190611ce2565b6102fc565b6040516100e1929190611d28565b60405180910390f35b3480156100f657600080fd5b506100ff610414565b60405161010c9190611d51565b60405180910390f35b34801561012157600080fd5b5061013c60048036038101906101379190611ce2565b61041a565b005b61015860048036038101906101539190611edf565b610505565b005b34801561016657600080fd5b50610181600480360381019061017c91906120a3565b610982565b005b34801561018f57600080fd5b506101aa60048036038101906101a59190611ce2565b610ccf565b005b3480156101b857600080fd5b506101d360048036038101906101ce91906120ec565b610dba565b6040516101e0919061213b565b60405180910390f35b3480156101f557600080fd5b50610210600480360381019061020b9190612156565b610e08565b60405161021e929190612374565b60405180910390f35b34801561023357600080fd5b5061023c61104e565b604051610249919061213b565b60405180910390f35b34801561025e57600080fd5b5061027960048036038101906102749190612156565b611074565b60405161028a959493929190612445565b60405180910390f35b34801561029f57600080fd5b506102a86111ab565b6040516102b59190611d51565b60405180910390f35b3480156102ca57600080fd5b506102e560048036038101906102e09190612156565b6111b1565b6040516102f3929190612579565b60405180910390f35b600080600660003373ffffffffffffffffffffffffffffffffffffffff1673ffffffffffffffffffffffffffffffffffffffff16815260200190815260200160002060009054906101000a900460ff1661038b576040517f08c379a00000000000000000000000000000000000000000000000000000000081526004016103829061261b565b60405180910390fd5b600460008473ffffffffffffffffffffffffffffffffffffffff1673ffffffffffffffffffffffffffffffffffffffff16815260200190815260200160002054600560008573ffffffffffffffffffffffffffffffffffffffff1673ffffffffffffffffffffffffffffffffffffffff1681526020019081526020016000205491509150915091565b60025481565b600360009054906101000a900473ffffffffffffffffffffffffffffffffffffffff1673ffffffffffffffffffffffffffffffffffffffff163373ffffffffffffffffffffffffffffffffffffffff16146104aa576040517f08c379a00000000000000000000000000000000000000000000000000000000081526004016104a1906126ad565b60405180910390fd5b6000600660008373ffffffffffffffffffffffffffffffffffffffff1673ffffffffffffffffffffffffffffffffffffffff16815260200190815260200160002060006101000a81548160ff02191690831515021790555050565b6002543414610549576040517f08c379a000000000000000000000000000000000000000000000000000000000815260040161054090612719565b60405180910390fd5b600154821461058d576040517f08c379a000000000000000000000000000000000000000000000000000000000815260040161058490612785565b60405180910390fd5b60008083815481106105a2576105a16127a5565b5b90600052602060002090600c0201905080600b0154421115610719576105c7836113cb565b60008160080160006101000a81548160ff02191690831515021790555060018160080160016101000a81548160ff02191690831515021790555060008160090181905550827fdef00e5b410cba4402844ad2fb7c6b40ff9e90a996c1e92bdbf671faa9f9773a8260010160405161063e91906128cd565b60405180910390a2600080549050600184610659919061291e565b10156106e2576001806000828254610671919061291e565b925050819055506000806001548154811061068f5761068e6127a5565b5b90600052602060002090600c0201905060018160080160006101000a81548160ff0219169083151502179055504281600a018190555062015180426106d4919061291e565b81600b018190555050610714565b7f899d01772826b484a93fc8cb11e3cbeeac6f953e6e260d9d2249ed9dbb7168f760405160405180910390a15061097e565b61097c565b6009600084815260200190815260200160002060003373ffffffffffffffffffffffffffffffffffffffff1673ffffffffffffffffffffffffffffffffffffffff1681526020019081526020016000208290806001815401808255809150506001900390600052602060002090600202016000909190919091509060026107a1929190611bb6565b50600a600084815260200190815260200160002060003373ffffffffffffffffffffffffffffffffffffffff1673ffffffffffffffffffffffffffffffffffffffff1681526020019081526020016000204290806001815401808255809150506001900390600052602060002001600090919091909150556001600460003373ffffffffffffffffffffffffffffffffffffffff1673ffffffffffffffffffffffffffffffffffffffff1681526020019081526020016000206000828254610869919061291e565b9250508190555060006108bb83836006016002806020026040519081016040528092919082600280156108b1576020028201915b81548152602001906001019080831161089d575b50505050506116bb565b9050600060405180604001604052803373ffffffffffffffffffffffffffffffffffffffff1681526020018381525090506108f6858261185a565b3483600901600082825461090a919061291e565b9250508190555060004284600b01546109239190612952565b90503373ffffffffffffffffffffffffffffffffffffffff16867f908654bcc6be11489964d59f095aa5a2b8b3eebc93fd8a0e4a39c6579f06205d874285604051610970939291906129e8565b60405180910390a35050505b505b5050565b600660003373ffffffffffffffffffffffffffffffffffffffff1673ffffffffffffffffffffffffffffffffffffffff16815260200190815260200160002060009054906101000a900460ff16610a0e576040517f08c379a0000000000000000000000000000000000000000000000000000000008152600401610a059061261b565b60405180910390fd5b600060405180610140016040528083600001518152602001836020015181526020018360400151815260200183606001518152602001836080015181526020016000151581526020016000151581526020016000815260200160008152602001600081525090806001815401808255809150506001900390600052602060002090600c02016000909190919091506000820151816000019081610ab19190612bb6565b506020820151816001019081610ac79190612bb6565b50604082015181600201906002610adf929190611bb6565b50606082015181600401906002610af7929190611bb6565b50608082015181600601906002610b0f929190611bb6565b5060a08201518160080160006101000a81548160ff02191690831515021790555060c08201518160080160016101000a81548160ff02191690831515021790555060e0820151816009015561010082015181600a015561012082015181600b0155505060016000805490501480610bb85750600060015481548110610b9757610b966127a5565b5b90600052602060002090600c020160080160009054906101000a900460ff16155b15610c7c5760006001600080549050610bd19190612952565b9050600160008281548110610be957610be86127a5565b5b90600052602060002090600c020160080160006101000a81548160ff0219169083151502179055504260008281548110610c2657610c256127a5565b5b90600052602060002090600c0201600a01819055506201518042610c4a919061291e565b60008281548110610c5e57610c5d6127a5565b5b90600052602060002090600c0201600b018190555080600181905550505b6001600080549050610c8e9190612952565b7fd9e1dd888325e72084cbcf9634262dfb2ba49c6eda196148e4b9c4c44d14678b82600001516000604051610cc4929190612cc3565b60405180910390a250565b600360009054906101000a900473ffffffffffffffffffffffffffffffffffffffff1673ffffffffffffffffffffffffffffffffffffffff163373ffffffffffffffffffffffffffffffffffffffff1614610d5f576040517f08c379a0000000000000000000000000000000000000000000000000000000008152600401610d56906126ad565b60405180910390fd5b6001600660008373ffffffffffffffffffffffffffffffffffffffff1673ffffffffffffffffffffffffffffffffffffffff16815260200190815260200160002060006101000a81548160ff02191690831515021790555050565b60076020528160005260406000208181548110610dd657600080fd5b906000526020600020016000915091509054906101000a900473ffffffffffffffffffffffffffffffffffffffff1681565b6060806000805490508310610e52576040517f08c379a0000000000000000000000000000000000000000000000000000000008152600401610e4990612d3f565b60405180910390fd5b6000600a600085815260200190815260200160002060003373ffffffffffffffffffffffffffffffffffffffff1673ffffffffffffffffffffffffffffffffffffffff16815260200190815260200160002090506000818054905067ffffffffffffffff811115610ec657610ec5611dae565b5b604051908082528060200260200182016040528015610ef45781602001602082028036833780820191505090505b50905060005b8280549050811015610f67576000838281548110610f1b57610f1a6127a5565b5b906000526020600020015442610f319190612952565b905080838381518110610f4757610f466127a5565b5b602002602001018181525050508080610f5f90612d5f565b915050610efa565b506009600086815260200190815260200160002060003373ffffffffffffffffffffffffffffffffffffffff1673ffffffffffffffffffffffffffffffffffffffff1681526020019081526020016000208181805480602002602001604051908101604052809291908181526020016000905b8282101561103d5783829060005260206000209060020201600280602002604051908101604052809291908260028015611029576020028201915b815481526020019060010190808311611015575b505050505081526020019060010190610fda565b505050509150935093505050915091565b600360009054906101000a900473ffffffffffffffffffffffffffffffffffffffff1681565b60606000806000806000808781548110611091576110906127a5565b5b90600052602060002090600c0201905060008160080160009054906101000a900460ff1680156110c4575081600b015442105b156110dc574282600b01546110d99190612952565b90505b816000018260080160009054906101000a900460ff168360080160019054906101000a900460ff1684600901548484805461111690612803565b80601f016020809104026020016040519081016040528092919081815260200182805461114290612803565b801561118f5780601f106111645761010080835404028352916020019161118f565b820191906000526020600020905b81548152906001019060200180831161117257829003601f168201915b5050505050945096509650965096509650505091939590929450565b60015481565b6111b9611bf6565b60606000805490508310611202576040517f08c379a00000000000000000000000000000000000000000000000000000000081526004016111f990612d3f565b60405180910390fd5b6000808481548110611217576112166127a5565b5b90600052602060002090600c020190508060080160019054906101000a900460ff16611278576040517f08c379a000000000000000000000000000000000000000000000000000000000815260040161126f90612e19565b60405180910390fd5b600860008581526020019081526020016000208160010181600380602002604051908101604052809291906000905b8282101561132f578382600202016040518060400160405290816000820160009054906101000a900473ffffffffffffffffffffffffffffffffffffffff1673ffffffffffffffffffffffffffffffffffffffff1673ffffffffffffffffffffffffffffffffffffffff168152602001600182015481525050815260200190600101906112a7565b50505050915080805461134190612803565b80601f016020809104026020016040519081016040528092919081815260200182805461136d90612803565b80156113ba5780601f1061138f576101008083540402835291602001916113ba565b820191906000526020600020905b81548152906001019060200180831161139d57829003601f168201915b505050505090509250925050915091565b60008082815481106113e0576113df6127a5565b5b90600052602060002090600c0201600901549050600060405180606001604052806064603c856114109190612e39565b61141a9190612eaa565b81526020016064601e8561142e9190612e39565b6114389190612eaa565b81526020016064600a8561144c9190612e39565b6114569190612eaa565b815250905060005b600860008581526020019081526020016000205060038160ff16101561168b57600073ffffffffffffffffffffffffffffffffffffffff16600860008681526020019081526020016000208260ff16600381106114be576114bd6127a5565b5b6002020160000160009054906101000a900473ffffffffffffffffffffffffffffffffffffffff1673ffffffffffffffffffffffffffffffffffffffff161461167857600860008581526020019081526020016000208160ff1660038110611529576115286127a5565b5b6002020160000160009054906101000a900473ffffffffffffffffffffffffffffffffffffffff1673ffffffffffffffffffffffffffffffffffffffff166108fc838360ff16600381106115805761157f6127a5565b5b60200201519081150290604051600060405180830381858888f193505050501580156115b0573d6000803e3d6000fd5b50600860008581526020019081526020016000208160ff16600381106115d9576115d86127a5565b5b6002020160000160009054906101000a900473ffffffffffffffffffffffffffffffffffffffff1673ffffffffffffffffffffffffffffffffffffffff16847fbdedb55c2d951cadfc4dac45910010e1291daf52cd715aaea0a9c326c922d745848460ff166003811061164f5761164e6127a5565b5b60200201516001856116619190612ee8565b60405161166f929190612f2c565b60405180910390a35b808061168390612f55565b91505061145e565b5060008084815481106116a1576116a06127a5565b5b90600052602060002090600c020160090181905550505050565b600080826000600281106116d2576116d16127a5565b5b6020020151846000600281106116eb576116ea6127a5565b5b6020020151116117365783600060028110611709576117086127a5565b5b602002015183600060028110611722576117216127a5565b5b60200201516117319190612952565b611773565b8260006002811061174a576117496127a5565b5b602002015184600060028110611763576117626127a5565b5b60200201516117729190612952565b5b905060008360016002811061178b5761178a6127a5565b5b6020020151856001600281106117a4576117a36127a5565b5b6020020151116117ef57846001600281106117c2576117c16127a5565b5b6020020151846001600281106117db576117da6127a5565b5b60200201516117ea9190612952565b61182c565b83600160028110611803576118026127a5565b5b60200201518560016002811061181c5761181b6127a5565b5b602002015161182b9190612952565b5b9050808161183a9190612e39565b82836118469190612e39565b611850919061291e565b9250505092915050565b600060086000848152602001908152602001600020905060006001905060005b60038110156119a357836000015173ffffffffffffffffffffffffffffffffffffffff168382600381106118b1576118b06127a5565b5b6002020160000160009054906101000a900473ffffffffffffffffffffffffffffffffffffffff1673ffffffffffffffffffffffffffffffffffffffff160361199057828160038110611907576119066127a5565b5b600202016001015484602001511015611987578383826003811061192e5761192d6127a5565b5b6002020160008201518160000160006101000a81548173ffffffffffffffffffffffffffffffffffffffff021916908373ffffffffffffffffffffffffffffffffffffffff160217905550602082015181600101559050505b600091506119a3565b808061199b90612d5f565b91505061187a565b508015611bb05760005b6003811015611bae57600073ffffffffffffffffffffffffffffffffffffffff168382600381106119e1576119e06127a5565b5b6002020160000160009054906101000a900473ffffffffffffffffffffffffffffffffffffffff1673ffffffffffffffffffffffffffffffffffffffff161480611a485750828160038110611a3957611a386127a5565b5b60020201600101548460200151105b15611b9b57600060016003611a5d9190612952565b90505b81811115611b295783600182611a769190612952565b60038110611a8757611a866127a5565b5b60020201848260038110611a9e57611a9d6127a5565b5b600202016000820160009054906101000a900473ffffffffffffffffffffffffffffffffffffffff168160000160006101000a81548173ffffffffffffffffffffffffffffffffffffffff021916908373ffffffffffffffffffffffffffffffffffffffff160217905550600182015481600101559050508080611b2190612f7e565b915050611a60565b5083838260038110611b3e57611b3d6127a5565b5b6002020160008201518160000160006101000a81548173ffffffffffffffffffffffffffffffffffffffff021916908373ffffffffffffffffffffffffffffffffffffffff16021790555060208201518160010155905050611bae565b8080611ba690612d5f565b9150506119ad565b505b50505050565b8260028101928215611be5579160200282015b82811115611be4578251825591602001919060010190611bc9565b5b509050611bf29190611c23565b5090565b60405180606001604052806003905b611c0d611c40565b815260200190600190039081611c055790505090565b5b80821115611c3c576000816000905550600101611c24565b5090565b6040518060400160405280600073ffffffffffffffffffffffffffffffffffffffff168152602001600081525090565b6000604051905090565b600080fd5b600080fd5b600073ffffffffffffffffffffffffffffffffffffffff82169050919050565b6000611caf82611c84565b9050919050565b611cbf81611ca4565b8114611cca57600080fd5b50565b600081359050611cdc81611cb6565b92915050565b600060208284031215611cf857611cf7611c7a565b5b6000611d0684828501611ccd565b91505092915050565b6000819050919050565b611d2281611d0f565b82525050565b6000604082019050611d3d6000830185611d19565b611d4a6020830184611d19565b9392505050565b6000602082019050611d666000830184611d19565b92915050565b611d7581611d0f565b8114611d8057600080fd5b50565b600081359050611d9281611d6c565b92915050565b600080fd5b6000601f19601f8301169050919050565b7f4e487b7100000000000000000000000000000000000000000000000000000000600052604160045260246000fd5b611de682611d9d565b810181811067ffffffffffffffff82111715611e0557611e04611dae565b5b80604052505050565b6000611e18611c70565b9050611e248282611ddd565b919050565b600067ffffffffffffffff821115611e4457611e43611dae565b5b602082029050919050565b600080fd5b6000611e67611e6284611e29565b611e0e565b90508060208402830185811115611e8157611e80611e4f565b5b835b81811015611eaa5780611e968882611d83565b845260208401935050602081019050611e83565b5050509392505050565b600082601f830112611ec957611ec8611d98565b5b6002611ed6848285611e54565b91505092915050565b60008060608385031215611ef657611ef5611c7a565b5b6000611f0485828601611d83565b9250506020611f1585828601611eb4565b9150509250929050565b600080fd5b600080fd5b600080fd5b600067ffffffffffffffff821115611f4957611f48611dae565b5b611f5282611d9d565b9050602081019050919050565b82818337600083830152505050565b6000611f81611f7c84611f2e565b611e0e565b905082815260208101848484011115611f9d57611f9c611f29565b5b611fa8848285611f5f565b509392505050565b600082601f830112611fc557611fc4611d98565b5b8135611fd5848260208601611f6e565b91505092915050565b60006101008284031215611ff557611ff4611f1f565b5b611fff60a0611e0e565b9050600082013567ffffffffffffffff81111561201f5761201e611f24565b5b61202b84828501611fb0565b600083015250602082013567ffffffffffffffff81111561204f5761204e611f24565b5b61205b84828501611fb0565b602083015250604061206f84828501611eb4565b604083015250608061208384828501611eb4565b60608301525060c061209784828501611eb4565b60808301525092915050565b6000602082840312156120b9576120b8611c7a565b5b600082013567ffffffffffffffff8111156120d7576120d6611c7f565b5b6120e384828501611fde565b91505092915050565b6000806040838503121561210357612102611c7a565b5b600061211185828601611d83565b925050602061212285828601611d83565b9150509250929050565b61213581611ca4565b82525050565b6000602082019050612150600083018461212c565b92915050565b60006020828403121561216c5761216b611c7a565b5b600061217a84828501611d83565b91505092915050565b600081519050919050565b600082825260208201905092915050565b6000819050602082019050919050565b600060029050919050565b600081905092915050565b6000819050919050565b6121d881611d0f565b82525050565b60006121ea83836121cf565b60208301905092915050565b6000602082019050919050565b61220c816121af565b61221681846121ba565b9250612221826121c5565b8060005b8381101561225257815161223987826121de565b9650612244836121f6565b925050600181019050612225565b505050505050565b60006122668383612203565b60408301905092915050565b6000602082019050919050565b600061228a82612183565b612294818561218e565b935061229f8361219f565b8060005b838110156122d05781516122b7888261225a565b97506122c283612272565b9250506001810190506122a3565b5085935050505092915050565b600081519050919050565b600082825260208201905092915050565b6000819050602082019050919050565b6000602082019050919050565b6000612321826122dd565b61232b81856122e8565b9350612336836122f9565b8060005b8381101561236757815161234e88826121de565b975061235983612309565b92505060018101905061233a565b5085935050505092915050565b6000604082019050818103600083015261238e818561227f565b905081810360208301526123a28184612316565b90509392505050565b600081519050919050565b600082825260208201905092915050565b60005b838110156123e55780820151818401526020810190506123ca565b60008484015250505050565b60006123fc826123ab565b61240681856123b6565b93506124168185602086016123c7565b61241f81611d9d565b840191505092915050565b60008115159050919050565b61243f8161242a565b82525050565b600060a082019050818103600083015261245f81886123f1565b905061246e6020830187612436565b61247b6040830186612436565b6124886060830185611d19565b6124956080830184611d19565b9695505050505050565b600060039050919050565b600081905092915050565b6000819050919050565b6124c881611ca4565b82525050565b6040820160008201516124e460008501826124bf565b5060208201516124f760208501826121cf565b50505050565b600061250983836124ce565b60408301905092915050565b6000602082019050919050565b61252b8161249f565b61253581846124aa565b9250612540826124b5565b8060005b8381101561257157815161255887826124fd565b965061256383612515565b925050600181019050612544565b505050505050565b600060e08201905061258e6000830185612522565b81810360c08301526125a081846123f1565b90509392505050565b7f4f6e6c792061646d696e732063616e2063616c6c20746869732066756e63746960008201527f6f6e000000000000000000000000000000000000000000000000000000000000602082015250565b60006126056022836123b6565b9150612610826125a9565b604082019050919050565b60006020820190508181036000830152612634816125f8565b9050919050565b7f4f6e6c79206f776e65722063616e2063616c6c20746869732066756e6374696f60008201527f6e2e000000000000000000000000000000000000000000000000000000000000602082015250565b60006126976022836123b6565b91506126a28261263b565b604082019050919050565b600060208201905081810360008301526126c68161268a565b9050919050565b7f496e636f727265637420656e747279206665652e000000000000000000000000600082015250565b60006127036014836123b6565b915061270e826126cd565b602082019050919050565b60006020820190508181036000830152612732816126f6565b9050919050565b7f54686973206368616c6c656e6765206973206e6f74206163746976652e000000600082015250565b600061276f601d836123b6565b915061277a82612739565b602082019050919050565b6000602082019050818103600083015261279e81612762565b9050919050565b7f4e487b7100000000000000000000000000000000000000000000000000000000600052603260045260246000fd5b7f4e487b7100000000000000000000000000000000000000000000000000000000600052602260045260246000fd5b6000600282049050600182168061281b57607f821691505b60208210810361282e5761282d6127d4565b5b50919050565b60008190508160005260206000209050919050565b6000815461285681612803565b61286081866123b6565b9450600182166000811461287b5760018114612891576128c4565b60ff1983168652811515602002860193506128c4565b61289a85612834565b60005b838110156128bc5781548189015260018201915060208101905061289d565b808801955050505b50505092915050565b600060208201905081810360008301526128e78184612849565b905092915050565b7f4e487b7100000000000000000000000000000000000000000000000000000000600052601160045260246000fd5b600061292982611d0f565b915061293483611d0f565b925082820190508082111561294c5761294b6128ef565b5b92915050565b600061295d82611d0f565b915061296883611d0f565b92508282039050818111156129805761297f6128ef565b5b92915050565b600081905092915050565b61299a816121af565b6129a48184612986565b92506129af826121c5565b8060005b838110156129e05781516129c787826121de565b96506129d2836121f6565b9250506001810190506129b3565b505050505050565b60006080820190506129fd6000830186612991565b612a0a6040830185611d19565b612a176060830184611d19565b949350505050565b60006020601f8301049050919050565b600082821b905092915050565b600060088302612a6c7fffffffffffffffffffffffffffffffffffffffffffffffffffffffffffffffff82612a2f565b612a768683612a2f565b95508019841693508086168417925050509392505050565b6000819050919050565b6000612ab3612aae612aa984611d0f565b612a8e565b611d0f565b9050919050565b6000819050919050565b612acd83612a98565b612ae1612ad982612aba565b848454612a3c565b825550505050565b600090565b612af6612ae9565b612b01818484612ac4565b505050565b5b81811015612b2557612b1a600082612aee565b600181019050612b07565b5050565b601f821115612b6a57612b3b81612834565b612b4484612a1f565b81016020851015612b53578190505b612b67612b5f85612a1f565b830182612b06565b50505b505050565b600082821c905092915050565b6000612b8d60001984600802612b6f565b1980831691505092915050565b6000612ba68383612b7c565b9150826002028217905092915050565b612bbf826123ab565b67ffffffffffffffff811115612bd857612bd7611dae565b5b612be28254612803565b612bed828285612b29565b600060209050601f831160018114612c205760008415612c0e578287015190505b612c188582612b9a565b865550612c80565b601f198416612c2e86612834565b60005b82811015612c5657848901518255600182019150602085019450602081019050612c31565b86831015612c735784890151612c6f601f891682612b7c565b8355505b6001600288020188555050505b505050505050565b6000819050919050565b6000612cad612ca8612ca384612c88565b612a8e565b611d0f565b9050919050565b612cbd81612c92565b82525050565b60006040820190508181036000830152612cdd81856123f1565b9050612cec6020830184612cb4565b9392505050565b7f4368616c6c656e676520646f6573206e6f742065786973742e00000000000000600082015250565b6000612d296019836123b6565b9150612d3482612cf3565b602082019050919050565b60006020820190508181036000830152612d5881612d1c565b9050919050565b6000612d6a82611d0f565b91507fffffffffffffffffffffffffffffffffffffffffffffffffffffffffffffffff8203612d9c57612d9b6128ef565b5b600182019050919050565b7f4368616c6c656e676520686173206e6f742073746172746564206f722068617360008201527f206e6f7420656e64656420796574000000000000000000000000000000000000602082015250565b6000612e03602e836123b6565b9150612e0e82612da7565b604082019050919050565b60006020820190508181036000830152612e3281612df6565b9050919050565b6000612e4482611d0f565b9150612e4f83611d0f565b9250828202612e5d81611d0f565b91508282048414831517612e7457612e736128ef565b5b5092915050565b7f4e487b7100000000000000000000000000000000000000000000000000000000600052601260045260246000fd5b6000612eb582611d0f565b9150612ec083611d0f565b925082612ed057612ecf612e7b565b5b828204905092915050565b600060ff82169050919050565b6000612ef382612edb565b9150612efe83612edb565b9250828201905060ff811115612f1757612f166128ef565b5b92915050565b612f2681612edb565b82525050565b6000604082019050612f416000830185611d19565b612f4e6020830184612f1d565b9392505050565b6000612f6082612edb565b915060ff8203612f7357612f726128ef565b5b600182019050919050565b6000612f8982611d0f565b915060008203612f9c57612f9b6128ef565b5b60018203905091905056fea2646970667358221220facf44fa436b1f8940ce4043e9098443511d1c092d47cee373cd7bb2c9225f9c64736f6c63430008130033","opcodes":"PUSH1 0x80 PUSH1 0x40 MSTORE CALLVALUE DUP1 ISZERO PUSH3 0x11 JUMPI PUSH1 0x0 DUP1 REVERT JUMPDEST POP PUSH1 0x40 MLOAD PUSH3 0x3167 CODESIZE SUB DUP1 PUSH3 0x3167 DUP4 CODECOPY DUP2 DUP2 ADD PUSH1 0x40 MSTORE DUP2 ADD SWAP1 PUSH3 0x37 SWAP2 SWAP1 PUSH3 0x148 JUMP JUMPDEST CALLER PUSH1 0x3 PUSH1 0x0 PUSH2 0x100 EXP DUP2 SLOAD DUP2 PUSH20 0xFFFFFFFFFFFFFFFFFFFFFFFFFFFFFFFFFFFFFFFF MUL NOT AND SWAP1 DUP4 PUSH20 0xFFFFFFFFFFFFFFFFFFFFFFFFFFFFFFFFFFFFFFFF AND MUL OR SWAP1 SSTORE POP PUSH1 0x1 PUSH1 0x6 PUSH1 0x0 PUSH1 0x3 PUSH1 0x0 SWAP1 SLOAD SWAP1 PUSH2 0x100 EXP SWAP1 DIV PUSH20 0xFFFFFFFFFFFFFFFFFFFFFFFFFFFFFFFFFFFFFFFF AND PUSH20 0xFFFFFFFFFFFFFFFFFFFFFFFFFFFFFFFFFFFFFFFF AND PUSH20 0xFFFFFFFFFFFFFFFFFFFFFFFFFFFFFFFFFFFFFFFF AND DUP2 MSTORE PUSH1 0x20 ADD SWAP1 DUP2 MSTORE PUSH1 0x20 ADD PUSH1 0x0 KECCAK256 PUSH1 0x0 PUSH2 0x100 EXP DUP2 SLOAD DUP2 PUSH1 0xFF MUL NOT AND SWAP1 DUP4 ISZERO ISZERO MUL OR SWAP1 SSTORE POP DUP1 PUSH1 0x2 DUP2 SWAP1 SSTORE POP PUSH1 0x0 PUSH1 0x1 DUP2 SWAP1 SSTORE POP POP PUSH3 0x17A JUMP JUMPDEST PUSH1 0x0 DUP1 REVERT JUMPDEST PUSH1 0x0 DUP2 SWAP1 POP SWAP2 SWAP1 POP JUMP JUMPDEST PUSH3 0x122 DUP2 PUSH3 0x10D JUMP JUMPDEST DUP2 EQ PUSH3 0x12E JUMPI PUSH1 0x0 DUP1 REVERT JUMPDEST POP JUMP JUMPDEST PUSH1 0x0 DUP2 MLOAD SWAP1 POP PUSH3 0x142 DUP2 PUSH3 0x117 JUMP JUMPDEST SWAP3 SWAP2 POP POP JUMP JUMPDEST PUSH1 0x0 PUSH1 0x20 DUP3 DUP5 SUB SLT ISZERO PUSH3 0x161 JUMPI PUSH3 0x160 PUSH3 0x108 JUMP JUMPDEST JUMPDEST PUSH1 0x0 PUSH3 0x171 DUP5 DUP3 DUP6 ADD PUSH3 0x131 JUMP JUMPDEST SWAP2 POP POP SWAP3 SWAP2 POP POP JUMP JUMPDEST PUSH2 0x2FDD DUP1 PUSH3 0x18A PUSH1 0x0 CODECOPY PUSH1 0x0 RETURN INVALID PUSH1 0x80 PUSH1 0x40 MSTORE PUSH1 0x4 CALLDATASIZE LT PUSH2 0xA7 JUMPI PUSH1 0x0 CALLDATALOAD PUSH1 0xE0 SHR DUP1 PUSH4 0x7460DDEE GT PUSH2 0x64 JUMPI DUP1 PUSH4 0x7460DDEE EQ PUSH2 0x1AC JUMPI DUP1 PUSH4 0x7E621AC4 EQ PUSH2 0x1E9 JUMPI DUP1 PUSH4 0x8DA5CB5B EQ PUSH2 0x227 JUMPI DUP1 PUSH4 0x9046BBB5 EQ PUSH2 0x252 JUMPI DUP1 PUSH4 0xCC0B07A7 EQ PUSH2 0x293 JUMPI DUP1 PUSH4 0xEEBCEC7E EQ PUSH2 0x2BE JUMPI PUSH2 0xA7 JUMP JUMPDEST DUP1 PUSH4 0x4B1142C EQ PUSH2 0xAC JUMPI DUP1 PUSH4 0x72EA61C EQ PUSH2 0xEA JUMPI DUP1 PUSH4 0x1785F53C EQ PUSH2 0x115 JUMPI DUP1 PUSH4 0x2541DABC EQ PUSH2 0x13E JUMPI DUP1 PUSH4 0x32D3B3FC EQ PUSH2 0x15A JUMPI DUP1 PUSH4 0x70480275 EQ PUSH2 0x183 JUMPI JUMPDEST PUSH1 0x0 DUP1 REVERT JUMPDEST CALLVALUE DUP1 ISZERO PUSH2 0xB8 JUMPI PUSH1 0x0 DUP1 REVERT JUMPDEST POP PUSH2 0xD3 PUSH1 0x4 DUP1 CALLDATASIZE SUB DUP2 ADD SWAP1 PUSH2 0xCE SWAP2 SWAP1 PUSH2 0x1CE2 JUMP JUMPDEST PUSH2 0x2FC JUMP JUMPDEST PUSH1 0x40 MLOAD PUSH2 0xE1 SWAP3 SWAP2 SWAP1 PUSH2 0x1D28 JUMP JUMPDEST PUSH1 0x40 MLOAD DUP1 SWAP2 SUB SWAP1 RETURN JUMPDEST CALLVALUE DUP1 ISZERO PUSH2 0xF6 JUMPI PUSH1 0x0 DUP1 REVERT JUMPDEST POP PUSH2 0xFF PUSH2 0x414 JUMP JUMPDEST PUSH1 0x40 MLOAD PUSH2 0x10C SWAP2 SWAP1 PUSH2 0x1D51 JUMP JUMPDEST PUSH1 0x40 MLOAD DUP1 SWAP2 SUB SWAP1 RETURN JUMPDEST CALLVALUE DUP1 ISZERO PUSH2 0x121 JUMPI PUSH1 0x0 DUP1 REVERT JUMPDEST POP PUSH2 0x13C PUSH1 0x4 DUP1 CALLDATASIZE SUB DUP2 ADD SWAP1 PUSH2 0x137 SWAP2 SWAP1 PUSH2 0x1CE2 JUMP JUMPDEST PUSH2 0x41A JUMP JUMPDEST STOP JUMPDEST PUSH2 0x158 PUSH1 0x4 DUP1 CALLDATASIZE SUB DUP2 ADD SWAP1 PUSH2 0x153 SWAP2 SWAP1 PUSH2 0x1EDF JUMP JUMPDEST PUSH2 0x505 JUMP JUMPDEST STOP JUMPDEST CALLVALUE DUP1 ISZERO PUSH2 0x166 JUMPI PUSH1 0x0 DUP1 REVERT JUMPDEST POP PUSH2 0x181 PUSH1 0x4 DUP1 CALLDATASIZE SUB DUP2 ADD SWAP1 PUSH2 0x17C SWAP2 SWAP1 PUSH2 0x20A3 JUMP JUMPDEST PUSH2 0x982 JUMP JUMPDEST STOP JUMPDEST CALLVALUE DUP1 ISZERO PUSH2 0x18F JUMPI PUSH1 0x0 DUP1 REVERT JUMPDEST POP PUSH2 0x1AA PUSH1 0x4 DUP1 CALLDATASIZE SUB DUP2 ADD SWAP1 PUSH2 0x1A5 SWAP2 SWAP1 PUSH2 0x1CE2 JUMP JUMPDEST PUSH2 0xCCF JUMP JUMPDEST STOP JUMPDEST CALLVALUE DUP1 ISZERO PUSH2 0x1B8 JUMPI PUSH1 0x0 DUP1 REVERT JUMPDEST POP PUSH2 0x1D3 PUSH1 0x4 DUP1 CALLDATASIZE SUB DUP2 ADD SWAP1 PUSH2 0x1CE SWAP2 SWAP1 PUSH2 0x20EC JUMP JUMPDEST PUSH2 0xDBA JUMP JUMPDEST PUSH1 0x40 MLOAD PUSH2 0x1E0 SWAP2 SWAP1 PUSH2 0x213B JUMP JUMPDEST PUSH1 0x40 MLOAD DUP1 SWAP2 SUB SWAP1 RETURN JUMPDEST CALLVALUE DUP1 ISZERO PUSH2 0x1F5 JUMPI PUSH1 0x0 DUP1 REVERT JUMPDEST POP PUSH2 0x210 PUSH1 0x4 DUP1 CALLDATASIZE SUB DUP2 ADD SWAP1 PUSH2 0x20B SWAP2 SWAP1 PUSH2 0x2156 JUMP JUMPDEST PUSH2 0xE08 JUMP JUMPDEST PUSH1 0x40 MLOAD PUSH2 0x21E SWAP3 SWAP2 SWAP1 PUSH2 0x2374 JUMP JUMPDEST PUSH1 0x40 MLOAD DUP1 SWAP2 SUB SWAP1 RETURN JUMPDEST CALLVALUE DUP1 ISZERO PUSH2 0x233 JUMPI PUSH1 0x0 DUP1 REVERT JUMPDEST POP PUSH2 0x23C PUSH2 0x104E JUMP JUMPDEST PUSH1 0x40 MLOAD PUSH2 0x249 SWAP2 SWAP1 PUSH2 0x213B JUMP JUMPDEST PUSH1 0x40 MLOAD DUP1 SWAP2 SUB SWAP1 RETURN JUMPDEST CALLVALUE DUP1 ISZERO PUSH2 0x25E JUMPI PUSH1 0x0 DUP1 REVERT JUMPDEST POP PUSH2 0x279 PUSH1 0x4 DUP1 CALLDATASIZE SUB DUP2 ADD SWAP1 PUSH2 0x274 SWAP2 SWAP1 PUSH2 0x2156 JUMP JUMPDEST PUSH2 0x1074 JUMP JUMPDEST PUSH1 0x40 MLOAD PUSH2 0x28A SWAP6 SWAP5 SWAP4 SWAP3 SWAP2 SWAP1 PUSH2 0x2445 JUMP JUMPDEST PUSH1 0x40 MLOAD DUP1 SWAP2 SUB SWAP1 RETURN JUMPDEST CALLVALUE DUP1 ISZERO PUSH2 0x29F JUMPI PUSH1 0x0 DUP1 REVERT JUMPDEST POP PUSH2 0x2A8 PUSH2 0x11AB JUMP JUMPDEST PUSH1 0x40 MLOAD PUSH2 0x2B5 SWAP2 SWAP1 PUSH2 0x1D51 JUMP JUMPDEST PUSH1 0x40 MLOAD DUP1 SWAP2 SUB SWAP1 RETURN JUMPDEST CALLVALUE DUP1 ISZERO PUSH2 0x2CA JUMPI PUSH1 0x0 DUP1 REVERT JUMPDEST POP PUSH2 0x2E5 PUSH1 0x4 DUP1 CALLDATASIZE SUB DUP2 ADD SWAP1 PUSH2 0x2E0 SWAP2 SWAP1 PUSH2 0x2156 JUMP JUMPDEST PUSH2 0x11B1 JUMP JUMPDEST PUSH1 0x40 MLOAD PUSH2 0x2F3 SWAP3 SWAP2 SWAP1 PUSH2 0x2579 JUMP JUMPDEST PUSH1 0x40 MLOAD DUP1 SWAP2 SUB SWAP1 RETURN JUMPDEST PUSH1 0x0 DUP1 PUSH1 0x6 PUSH1 0x0 CALLER PUSH20 0xFFFFFFFFFFFFFFFFFFFFFFFFFFFFFFFFFFFFFFFF AND PUSH20 0xFFFFFFFFFFFFFFFFFFFFFFFFFFFFFFFFFFFFFFFF AND DUP2 MSTORE PUSH1 0x20 ADD SWAP1 DUP2 MSTORE PUSH1 0x20 ADD PUSH1 0x0 KECCAK256 PUSH1 0x0 SWAP1 SLOAD SWAP1 PUSH2 0x100 EXP SWAP1 DIV PUSH1 0xFF AND PUSH2 0x38B JUMPI PUSH1 0x40 MLOAD PUSH32 0x8C379A000000000000000000000000000000000000000000000000000000000 DUP2 MSTORE PUSH1 0x4 ADD PUSH2 0x382 SWAP1 PUSH2 0x261B JUMP JUMPDEST PUSH1 0x40 MLOAD DUP1 SWAP2 SUB SWAP1 REVERT JUMPDEST PUSH1 0x4 PUSH1 0x0 DUP5 PUSH20 0xFFFFFFFFFFFFFFFFFFFFFFFFFFFFFFFFFFFFFFFF AND PUSH20 0xFFFFFFFFFFFFFFFFFFFFFFFFFFFFFFFFFFFFFFFF AND DUP2 MSTORE PUSH1 0x20 ADD SWAP1 DUP2 MSTORE PUSH1 0x20 ADD PUSH1 0x0 KECCAK256 SLOAD PUSH1 0x5 PUSH1 0x0 DUP6 PUSH20 0xFFFFFFFFFFFFFFFFFFFFFFFFFFFFFFFFFFFFFFFF AND PUSH20 0xFFFFFFFFFFFFFFFFFFFFFFFFFFFFFFFFFFFFFFFF AND DUP2 MSTORE PUSH1 0x20 ADD SWAP1 DUP2 MSTORE PUSH1 0x20 ADD PUSH1 0x0 KECCAK256 SLOAD SWAP2 POP SWAP2 POP SWAP2 POP SWAP2 JUMP JUMPDEST PUSH1 0x2 SLOAD DUP2 JUMP JUMPDEST PUSH1 0x3 PUSH1 0x0 SWAP1 SLOAD SWAP1 PUSH2 0x100 EXP SWAP1 DIV PUSH20 0xFFFFFFFFFFFFFFFFFFFFFFFFFFFFFFFFFFFFFFFF AND PUSH20 0xFFFFFFFFFFFFFFFFFFFFFFFFFFFFFFFFFFFFFFFF AND CALLER PUSH20 0xFFFFFFFFFFFFFFFFFFFFFFFFFFFFFFFFFFFFFFFF AND EQ PUSH2 0x4AA JUMPI PUSH1 0x40 MLOAD PUSH32 0x8C379A000000000000000000000000000000000000000000000000000000000 DUP2 MSTORE PUSH1 0x4 ADD PUSH2 0x4A1 SWAP1 PUSH2 0x26AD JUMP JUMPDEST PUSH1 0x40 MLOAD DUP1 SWAP2 SUB SWAP1 REVERT JUMPDEST PUSH1 0x0 PUSH1 0x6 PUSH1 0x0 DUP4 PUSH20 0xFFFFFFFFFFFFFFFFFFFFFFFFFFFFFFFFFFFFFFFF AND PUSH20 0xFFFFFFFFFFFFFFFFFFFFFFFFFFFFFFFFFFFFFFFF AND DUP2 MSTORE PUSH1 0x20 ADD SWAP1 DUP2 MSTORE PUSH1 0x20 ADD PUSH1 0x0 KECCAK256 PUSH1 0x0 PUSH2 0x100 EXP DUP2 SLOAD DUP2 PUSH1 0xFF MUL NOT AND SWAP1 DUP4 ISZERO ISZERO MUL OR SWAP1 SSTORE POP POP JUMP JUMPDEST PUSH1 0x2 SLOAD CALLVALUE EQ PUSH2 0x549 JUMPI PUSH1 0x40 MLOAD PUSH32 0x8C379A000000000000000000000000000000000000000000000000000000000 DUP2 MSTORE PUSH1 0x4 ADD PUSH2 0x540 SWAP1 PUSH2 0x2719 JUMP JUMPDEST PUSH1 0x40 MLOAD DUP1 SWAP2 SUB SWAP1 REVERT JUMPDEST PUSH1 0x1 SLOAD DUP3 EQ PUSH2 0x58D JUMPI PUSH1 0x40 MLOAD PUSH32 0x8C379A000000000000000000000000000000000000000000000000000000000 DUP2 MSTORE PUSH1 0x4 ADD PUSH2 0x584 SWAP1 PUSH2 0x2785 JUMP JUMPDEST PUSH1 0x40 MLOAD DUP1 SWAP2 SUB SWAP1 REVERT JUMPDEST PUSH1 0x0 DUP1 DUP4 DUP2 SLOAD DUP2 LT PUSH2 0x5A2 JUMPI PUSH2 0x5A1 PUSH2 0x27A5 JUMP JUMPDEST JUMPDEST SWAP1 PUSH1 0x0 MSTORE PUSH1 0x20 PUSH1 0x0 KECCAK256 SWAP1 PUSH1 0xC MUL ADD SWAP1 POP DUP1 PUSH1 0xB ADD SLOAD TIMESTAMP GT ISZERO PUSH2 0x719 JUMPI PUSH2 0x5C7 DUP4 PUSH2 0x13CB JUMP JUMPDEST PUSH1 0x0 DUP2 PUSH1 0x8 ADD PUSH1 0x0 PUSH2 0x100 EXP DUP2 SLOAD DUP2 PUSH1 0xFF MUL NOT AND SWAP1 DUP4 ISZERO ISZERO MUL OR SWAP1 SSTORE POP PUSH1 0x1 DUP2 PUSH1 0x8 ADD PUSH1 0x1 PUSH2 0x100 EXP DUP2 SLOAD DUP2 PUSH1 0xFF MUL NOT AND SWAP1 DUP4 ISZERO ISZERO MUL OR SWAP1 SSTORE POP PUSH1 0x0 DUP2 PUSH1 0x9 ADD DUP2 SWAP1 SSTORE POP DUP3 PUSH32 0xDEF00E5B410CBA4402844AD2FB7C6B40FF9E90A996C1E92BDBF671FAA9F9773A DUP3 PUSH1 0x1 ADD PUSH1 0x40 MLOAD PUSH2 0x63E SWAP2 SWAP1 PUSH2 0x28CD JUMP JUMPDEST PUSH1 0x40 MLOAD DUP1 SWAP2 SUB SWAP1 LOG2 PUSH1 0x0 DUP1 SLOAD SWAP1 POP PUSH1 0x1 DUP5 PUSH2 0x659 SWAP2 SWAP1 PUSH2 0x291E JUMP JUMPDEST LT ISZERO PUSH2 0x6E2 JUMPI PUSH1 0x1 DUP1 PUSH1 0x0 DUP3 DUP3 SLOAD PUSH2 0x671 SWAP2 SWAP1 PUSH2 0x291E JUMP JUMPDEST SWAP3 POP POP DUP2 SWAP1 SSTORE POP PUSH1 0x0 DUP1 PUSH1 0x1 SLOAD DUP2 SLOAD DUP2 LT PUSH2 0x68F JUMPI PUSH2 0x68E PUSH2 0x27A5 JUMP JUMPDEST JUMPDEST SWAP1 PUSH1 0x0 MSTORE PUSH1 0x20 PUSH1 0x0 KECCAK256 SWAP1 PUSH1 0xC MUL ADD SWAP1 POP PUSH1 0x1 DUP2 PUSH1 0x8 ADD PUSH1 0x0 PUSH2 0x100 EXP DUP2 SLOAD DUP2 PUSH1 0xFF MUL NOT AND SWAP1 DUP4 ISZERO ISZERO MUL OR SWAP1 SSTORE POP TIMESTAMP DUP2 PUSH1 0xA ADD DUP2 SWAP1 SSTORE POP PUSH3 0x15180 TIMESTAMP PUSH2 0x6D4 SWAP2 SWAP1 PUSH2 0x291E JUMP JUMPDEST DUP2 PUSH1 0xB ADD DUP2 SWAP1 SSTORE POP POP PUSH2 0x714 JUMP JUMPDEST PUSH32 0x899D01772826B484A93FC8CB11E3CBEEAC6F953E6E260D9D2249ED9DBB7168F7 PUSH1 0x40 MLOAD PUSH1 0x40 MLOAD DUP1 SWAP2 SUB SWAP1 LOG1 POP PUSH2 0x97E JUMP JUMPDEST PUSH2 0x97C JUMP JUMPDEST PUSH1 0x9 PUSH1 0x0 DUP5 DUP2 MSTORE PUSH1 0x20 ADD SWAP1 DUP2 MSTORE PUSH1 0x20 ADD PUSH1 0x0 KECCAK256 PUSH1 0x0 CALLER PUSH20 0xFFFFFFFFFFFFFFFFFFFFFFFFFFFFFFFFFFFFFFFF AND PUSH20 0xFFFFFFFFFFFFFFFFFFFFFFFFFFFFFFFFFFFFFFFF AND DUP2 MSTORE PUSH1 0x20 ADD SWAP1 DUP2 MSTORE PUSH1 0x20 ADD PUSH1 0x0 KECCAK256 DUP3 SWAP1 DUP1 PUSH1 0x1 DUP2 SLOAD ADD DUP1 DUP3 SSTORE DUP1 SWAP2 POP POP PUSH1 0x1 SWAP1 SUB SWAP1 PUSH1 0x0 MSTORE PUSH1 0x20 PUSH1 0x0 KECCAK256 SWAP1 PUSH1 0x2 MUL ADD PUSH1 0x0 SWAP1 SWAP2 SWAP1 SWAP2 SWAP1 SWAP2 POP SWAP1 PUSH1 0x2 PUSH2 0x7A1 SWAP3 SWAP2 SWAP1 PUSH2 0x1BB6 JUMP JUMPDEST POP PUSH1 0xA PUSH1 0x0 DUP5 DUP2 MSTORE PUSH1 0x20 ADD SWAP1 DUP2 MSTORE PUSH1 0x20 ADD PUSH1 0x0 KECCAK256 PUSH1 0x0 CALLER PUSH20 0xFFFFFFFFFFFFFFFFFFFFFFFFFFFFFFFFFFFFFFFF AND PUSH20 0xFFFFFFFFFFFFFFFFFFFFFFFFFFFFFFFFFFFFFFFF AND DUP2 MSTORE PUSH1 0x20 ADD SWAP1 DUP2 MSTORE PUSH1 0x20 ADD PUSH1 0x0 KECCAK256 TIMESTAMP SWAP1 DUP1 PUSH1 0x1 DUP2 SLOAD ADD DUP1 DUP3 SSTORE DUP1 SWAP2 POP POP PUSH1 0x1 SWAP1 SUB SWAP1 PUSH1 0x0 MSTORE PUSH1 0x20 PUSH1 0x0 KECCAK256 ADD PUSH1 0x0 SWAP1 SWAP2 SWAP1 SWAP2 SWAP1 SWAP2 POP SSTORE PUSH1 0x1 PUSH1 0x4 PUSH1 0x0 CALLER PUSH20 0xFFFFFFFFFFFFFFFFFFFFFFFFFFFFFFFFFFFFFFFF AND PUSH20 0xFFFFFFFFFFFFFFFFFFFFFFFFFFFFFFFFFFFFFFFF AND DUP2 MSTORE PUSH1 0x20 ADD SWAP1 DUP2 MSTORE PUSH1 0x20 ADD PUSH1 0x0 KECCAK256 PUSH1 0x0 DUP3 DUP3 SLOAD PUSH2 0x869 SWAP2 SWAP1 PUSH2 0x291E JUMP JUMPDEST SWAP3 POP POP DUP2 SWAP1 SSTORE POP PUSH1 0x0 PUSH2 0x8BB DUP4 DUP4 PUSH1 0x6 ADD PUSH1 0x2 DUP1 PUSH1 0x20 MUL PUSH1 0x40 MLOAD SWAP1 DUP2 ADD PUSH1 0x40 MSTORE DUP1 SWAP3 SWAP2 SWAP1 DUP3 PUSH1 0x2 DUP1 ISZERO PUSH2 0x8B1 JUMPI PUSH1 0x20 MUL DUP3 ADD SWAP2 JUMPDEST DUP2 SLOAD DUP2 MSTORE PUSH1 0x20 ADD SWAP1 PUSH1 0x1 ADD SWAP1 DUP1 DUP4 GT PUSH2 0x89D JUMPI JUMPDEST POP POP POP POP POP PUSH2 0x16BB JUMP JUMPDEST SWAP1 POP PUSH1 0x0 PUSH1 0x40 MLOAD DUP1 PUSH1 0x40 ADD PUSH1 0x40 MSTORE DUP1 CALLER PUSH20 0xFFFFFFFFFFFFFFFFFFFFFFFFFFFFFFFFFFFFFFFF AND DUP2 MSTORE PUSH1 0x20 ADD DUP4 DUP2 MSTORE POP SWAP1 POP PUSH2 0x8F6 DUP6 DUP3 PUSH2 0x185A JUMP JUMPDEST CALLVALUE DUP4 PUSH1 0x9 ADD PUSH1 0x0 DUP3 DUP3 SLOAD PUSH2 0x90A SWAP2 SWAP1 PUSH2 0x291E JUMP JUMPDEST SWAP3 POP POP DUP2 SWAP1 SSTORE POP PUSH1 0x0 TIMESTAMP DUP5 PUSH1 0xB ADD SLOAD PUSH2 0x923 SWAP2 SWAP1 PUSH2 0x2952 JUMP JUMPDEST SWAP1 POP CALLER PUSH20 0xFFFFFFFFFFFFFFFFFFFFFFFFFFFFFFFFFFFFFFFF AND DUP7 PUSH32 0x908654BCC6BE11489964D59F095AA5A2B8B3EEBC93FD8A0E4A39C6579F06205D DUP8 TIMESTAMP DUP6 PUSH1 0x40 MLOAD PUSH2 0x970 SWAP4 SWAP3 SWAP2 SWAP1 PUSH2 0x29E8 JUMP JUMPDEST PUSH1 0x40 MLOAD DUP1 SWAP2 SUB SWAP1 LOG3 POP POP POP JUMPDEST POP JUMPDEST POP POP JUMP JUMPDEST PUSH1 0x6 PUSH1 0x0 CALLER PUSH20 0xFFFFFFFFFFFFFFFFFFFFFFFFFFFFFFFFFFFFFFFF AND PUSH20 0xFFFFFFFFFFFFFFFFFFFFFFFFFFFFFFFFFFFFFFFF AND DUP2 MSTORE PUSH1 0x20 ADD SWAP1 DUP2 MSTORE PUSH1 0x20 ADD PUSH1 0x0 KECCAK256 PUSH1 0x0 SWAP1 SLOAD SWAP1 PUSH2 0x100 EXP SWAP1 DIV PUSH1 0xFF AND PUSH2 0xA0E JUMPI PUSH1 0x40 MLOAD PUSH32 0x8C379A000000000000000000000000000000000000000000000000000000000 DUP2 MSTORE PUSH1 0x4 ADD PUSH2 0xA05 SWAP1 PUSH2 0x261B JUMP JUMPDEST PUSH1 0x40 MLOAD DUP1 SWAP2 SUB SWAP1 REVERT JUMPDEST PUSH1 0x0 PUSH1 0x40 MLOAD DUP1 PUSH2 0x140 ADD PUSH1 0x40 MSTORE DUP1 DUP4 PUSH1 0x0 ADD MLOAD DUP2 MSTORE PUSH1 0x20 ADD DUP4 PUSH1 0x20 ADD MLOAD DUP2 MSTORE PUSH1 0x20 ADD DUP4 PUSH1 0x40 ADD MLOAD DUP2 MSTORE PUSH1 0x20 ADD DUP4 PUSH1 0x60 ADD MLOAD DUP2 MSTORE PUSH1 0x20 ADD DUP4 PUSH1 0x80 ADD MLOAD DUP2 MSTORE PUSH1 0x20 ADD PUSH1 0x0 ISZERO ISZERO DUP2 MSTORE PUSH1 0x20 ADD PUSH1 0x0 ISZERO ISZERO DUP2 MSTORE PUSH1 0x20 ADD PUSH1 0x0 DUP2 MSTORE PUSH1 0x20 ADD PUSH1 0x0 DUP2 MSTORE PUSH1 0x20 ADD PUSH1 0x0 DUP2 MSTORE POP SWAP1 DUP1 PUSH1 0x1 DUP2 SLOAD ADD DUP1 DUP3 SSTORE DUP1 SWAP2 POP POP PUSH1 0x1 SWAP1 SUB SWAP1 PUSH1 0x0 MSTORE PUSH1 0x20 PUSH1 0x0 KECCAK256 SWAP1 PUSH1 0xC MUL ADD PUSH1 0x0 SWAP1 SWAP2 SWAP1 SWAP2 SWAP1 SWAP2 POP PUSH1 0x0 DUP3 ADD MLOAD DUP2 PUSH1 0x0 ADD SWAP1 DUP2 PUSH2 0xAB1 SWAP2 SWAP1 PUSH2 0x2BB6 JUMP JUMPDEST POP PUSH1 0x20 DUP3 ADD MLOAD DUP2 PUSH1 0x1 ADD SWAP1 DUP2 PUSH2 0xAC7 SWAP2 SWAP1 PUSH2 0x2BB6 JUMP JUMPDEST POP PUSH1 0x40 DUP3 ADD MLOAD DUP2 PUSH1 0x2 ADD SWAP1 PUSH1 0x2 PUSH2 0xADF SWAP3 SWAP2 SWAP1 PUSH2 0x1BB6 JUMP JUMPDEST POP PUSH1 0x60 DUP3 ADD MLOAD DUP2 PUSH1 0x4 ADD SWAP1 PUSH1 0x2 PUSH2 0xAF7 SWAP3 SWAP2 SWAP1 PUSH2 0x1BB6 JUMP JUMPDEST POP PUSH1 0x80 DUP3 ADD MLOAD DUP2 PUSH1 0x6 ADD SWAP1 PUSH1 0x2 PUSH2 0xB0F SWAP3 SWAP2 SWAP1 PUSH2 0x1BB6 JUMP JUMPDEST POP PUSH1 0xA0 DUP3 ADD MLOAD DUP2 PUSH1 0x8 ADD PUSH1 0x0 PUSH2 0x100 EXP DUP2 SLOAD DUP2 PUSH1 0xFF MUL NOT AND SWAP1 DUP4 ISZERO ISZERO MUL OR SWAP1 SSTORE POP PUSH1 0xC0 DUP3 ADD MLOAD DUP2 PUSH1 0x8 ADD PUSH1 0x1 PUSH2 0x100 EXP DUP2 SLOAD DUP2 PUSH1 0xFF MUL NOT AND SWAP1 DUP4 ISZERO ISZERO MUL OR SWAP1 SSTORE POP PUSH1 0xE0 DUP3 ADD MLOAD DUP2 PUSH1 0x9 ADD SSTORE PUSH2 0x100 DUP3 ADD MLOAD DUP2 PUSH1 0xA ADD SSTORE PUSH2 0x120 DUP3 ADD MLOAD DUP2 PUSH1 0xB ADD SSTORE POP POP PUSH1 0x1 PUSH1 0x0 DUP1 SLOAD SWAP1 POP EQ DUP1 PUSH2 0xBB8 JUMPI POP PUSH1 0x0 PUSH1 0x1 SLOAD DUP2 SLOAD DUP2 LT PUSH2 0xB97 JUMPI PUSH2 0xB96 PUSH2 0x27A5 JUMP JUMPDEST JUMPDEST SWAP1 PUSH1 0x0 MSTORE PUSH1 0x20 PUSH1 0x0 KECCAK256 SWAP1 PUSH1 0xC MUL ADD PUSH1 0x8 ADD PUSH1 0x0 SWAP1 SLOAD SWAP1 PUSH2 0x100 EXP SWAP1 DIV PUSH1 0xFF AND ISZERO JUMPDEST ISZERO PUSH2 0xC7C JUMPI PUSH1 0x0 PUSH1 0x1 PUSH1 0x0 DUP1 SLOAD SWAP1 POP PUSH2 0xBD1 SWAP2 SWAP1 PUSH2 0x2952 JUMP JUMPDEST SWAP1 POP PUSH1 0x1 PUSH1 0x0 DUP3 DUP2 SLOAD DUP2 LT PUSH2 0xBE9 JUMPI PUSH2 0xBE8 PUSH2 0x27A5 JUMP JUMPDEST JUMPDEST SWAP1 PUSH1 0x0 MSTORE PUSH1 0x20 PUSH1 0x0 KECCAK256 SWAP1 PUSH1 0xC MUL ADD PUSH1 0x8 ADD PUSH1 0x0 PUSH2 0x100 EXP DUP2 SLOAD DUP2 PUSH1 0xFF MUL NOT AND SWAP1 DUP4 ISZERO ISZERO MUL OR SWAP1 SSTORE POP TIMESTAMP PUSH1 0x0 DUP3 DUP2 SLOAD DUP2 LT PUSH2 0xC26 JUMPI PUSH2 0xC25 PUSH2 0x27A5 JUMP JUMPDEST JUMPDEST SWAP1 PUSH1 0x0 MSTORE PUSH1 0x20 PUSH1 0x0 KECCAK256 SWAP1 PUSH1 0xC MUL ADD PUSH1 0xA ADD DUP2 SWAP1 SSTORE POP PUSH3 0x15180 TIMESTAMP PUSH2 0xC4A SWAP2 SWAP1 PUSH2 0x291E JUMP JUMPDEST PUSH1 0x0 DUP3 DUP2 SLOAD DUP2 LT PUSH2 0xC5E JUMPI PUSH2 0xC5D PUSH2 0x27A5 JUMP JUMPDEST JUMPDEST SWAP1 PUSH1 0x0 MSTORE PUSH1 0x20 PUSH1 0x0 KECCAK256 SWAP1 PUSH1 0xC MUL ADD PUSH1 0xB ADD DUP2 SWAP1 SSTORE POP DUP1 PUSH1 0x1 DUP2 SWAP1 SSTORE POP POP JUMPDEST PUSH1 0x1 PUSH1 0x0 DUP1 SLOAD SWAP1 POP PUSH2 0xC8E SWAP2 SWAP1 PUSH2 0x2952 JUMP JUMPDEST PUSH32 0xD9E1DD888325E72084CBCF9634262DFB2BA49C6EDA196148E4B9C4C44D14678B DUP3 PUSH1 0x0 ADD MLOAD PUSH1 0x0 PUSH1 0x40 MLOAD PUSH2 0xCC4 SWAP3 SWAP2 SWAP1 PUSH2 0x2CC3 JUMP JUMPDEST PUSH1 0x40 MLOAD DUP1 SWAP2 SUB SWAP1 LOG2 POP JUMP JUMPDEST PUSH1 0x3 PUSH1 0x0 SWAP1 SLOAD SWAP1 PUSH2 0x100 EXP SWAP1 DIV PUSH20 0xFFFFFFFFFFFFFFFFFFFFFFFFFFFFFFFFFFFFFFFF AND PUSH20 0xFFFFFFFFFFFFFFFFFFFFFFFFFFFFFFFFFFFFFFFF AND CALLER PUSH20 0xFFFFFFFFFFFFFFFFFFFFFFFFFFFFFFFFFFFFFFFF AND EQ PUSH2 0xD5F JUMPI PUSH1 0x40 MLOAD PUSH32 0x8C379A000000000000000000000000000000000000000000000000000000000 DUP2 MSTORE PUSH1 0x4 ADD PUSH2 0xD56 SWAP1 PUSH2 0x26AD JUMP JUMPDEST PUSH1 0x40 MLOAD DUP1 SWAP2 SUB SWAP1 REVERT JUMPDEST PUSH1 0x1 PUSH1 0x6 PUSH1 0x0 DUP4 PUSH20 0xFFFFFFFFFFFFFFFFFFFFFFFFFFFFFFFFFFFFFFFF AND PUSH20 0xFFFFFFFFFFFFFFFFFFFFFFFFFFFFFFFFFFFFFFFF AND DUP2 MSTORE PUSH1 0x20 ADD SWAP1 DUP2 MSTORE PUSH1 0x20 ADD PUSH1 0x0 KECCAK256 PUSH1 0x0 PUSH2 0x100 EXP DUP2 SLOAD DUP2 PUSH1 0xFF MUL NOT AND SWAP1 DUP4 ISZERO ISZERO MUL OR SWAP1 SSTORE POP POP JUMP JUMPDEST PUSH1 0x7 PUSH1 0x20 MSTORE DUP2 PUSH1 0x0 MSTORE PUSH1 0x40 PUSH1 0x0 KECCAK256 DUP2 DUP2 SLOAD DUP2 LT PUSH2 0xDD6 JUMPI PUSH1 0x0 DUP1 REVERT JUMPDEST SWAP1 PUSH1 0x0 MSTORE PUSH1 0x20 PUSH1 0x0 KECCAK256 ADD PUSH1 0x0 SWAP2 POP SWAP2 POP SWAP1 SLOAD SWAP1 PUSH2 0x100 EXP SWAP1 DIV PUSH20 0xFFFFFFFFFFFFFFFFFFFFFFFFFFFFFFFFFFFFFFFF AND DUP2 JUMP JUMPDEST PUSH1 0x60 DUP1 PUSH1 0x0 DUP1 SLOAD SWAP1 POP DUP4 LT PUSH2 0xE52 JUMPI PUSH1 0x40 MLOAD PUSH32 0x8C379A000000000000000000000000000000000000000000000000000000000 DUP2 MSTORE PUSH1 0x4 ADD PUSH2 0xE49 SWAP1 PUSH2 0x2D3F JUMP JUMPDEST PUSH1 0x40 MLOAD DUP1 SWAP2 SUB SWAP1 REVERT JUMPDEST PUSH1 0x0 PUSH1 0xA PUSH1 0x0 DUP6 DUP2 MSTORE PUSH1 0x20 ADD SWAP1 DUP2 MSTORE PUSH1 0x20 ADD PUSH1 0x0 KECCAK256 PUSH1 0x0 CALLER PUSH20 0xFFFFFFFFFFFFFFFFFFFFFFFFFFFFFFFFFFFFFFFF AND PUSH20 0xFFFFFFFFFFFFFFFFFFFFFFFFFFFFFFFFFFFFFFFF AND DUP2 MSTORE PUSH1 0x20 ADD SWAP1 DUP2 MSTORE PUSH1 0x20 ADD PUSH1 0x0 KECCAK256 SWAP1 POP PUSH1 0x0 DUP2 DUP1 SLOAD SWAP1 POP PUSH8 0xFFFFFFFFFFFFFFFF DUP2 GT ISZERO PUSH2 0xEC6 JUMPI PUSH2 0xEC5 PUSH2 0x1DAE JUMP JUMPDEST JUMPDEST PUSH1 0x40 MLOAD SWAP1 DUP1 DUP3 MSTORE DUP1 PUSH1 0x20 MUL PUSH1 0x20 ADD DUP3 ADD PUSH1 0x40 MSTORE DUP1 ISZERO PUSH2 0xEF4 JUMPI DUP2 PUSH1 0x20 ADD PUSH1 0x20 DUP3 MUL DUP1 CALLDATASIZE DUP4 CALLDATACOPY DUP1 DUP3 ADD SWAP2 POP POP SWAP1 POP JUMPDEST POP SWAP1 POP PUSH1 0x0 JUMPDEST DUP3 DUP1 SLOAD SWAP1 POP DUP2 LT ISZERO PUSH2 0xF67 JUMPI PUSH1 0x0 DUP4 DUP3 DUP2 SLOAD DUP2 LT PUSH2 0xF1B JUMPI PUSH2 0xF1A PUSH2 0x27A5 JUMP JUMPDEST JUMPDEST SWAP1 PUSH1 0x0 MSTORE PUSH1 0x20 PUSH1 0x0 KECCAK256 ADD SLOAD TIMESTAMP PUSH2 0xF31 SWAP2 SWAP1 PUSH2 0x2952 JUMP JUMPDEST SWAP1 POP DUP1 DUP4 DUP4 DUP2 MLOAD DUP2 LT PUSH2 0xF47 JUMPI PUSH2 0xF46 PUSH2 0x27A5 JUMP JUMPDEST JUMPDEST PUSH1 0x20 MUL PUSH1 0x20 ADD ADD DUP2 DUP2 MSTORE POP POP POP DUP1 DUP1 PUSH2 0xF5F SWAP1 PUSH2 0x2D5F JUMP JUMPDEST SWAP2 POP POP PUSH2 0xEFA JUMP JUMPDEST POP PUSH1 0x9 PUSH1 0x0 DUP7 DUP2 MSTORE PUSH1 0x20 ADD SWAP1 DUP2 MSTORE PUSH1 0x20 ADD PUSH1 0x0 KECCAK256 PUSH1 0x0 CALLER PUSH20 0xFFFFFFFFFFFFFFFFFFFFFFFFFFFFFFFFFFFFFFFF AND PUSH20 0xFFFFFFFFFFFFFFFFFFFFFFFFFFFFFFFFFFFFFFFF AND DUP2 MSTORE PUSH1 0x20 ADD SWAP1 DUP2 MSTORE PUSH1 0x20 ADD PUSH1 0x0 KECCAK256 DUP2 DUP2 DUP1 SLOAD DUP1 PUSH1 0x20 MUL PUSH1 0x20 ADD PUSH1 0x40 MLOAD SWAP1 DUP2 ADD PUSH1 0x40 MSTORE DUP1 SWAP3 SWAP2 SWAP1 DUP2 DUP2 MSTORE PUSH1 0x20 ADD PUSH1 0x0 SWAP1 JUMPDEST DUP3 DUP3 LT ISZERO PUSH2 0x103D JUMPI DUP4 DUP3 SWAP1 PUSH1 0x0 MSTORE PUSH1 0x20 PUSH1 0x0 KECCAK256 SWAP1 PUSH1 0x2 MUL ADD PUSH1 0x2 DUP1 PUSH1 0x20 MUL PUSH1 0x40 MLOAD SWAP1 DUP2 ADD PUSH1 0x40 MSTORE DUP1 SWAP3 SWAP2 SWAP1 DUP3 PUSH1 0x2 DUP1 ISZERO PUSH2 0x1029 JUMPI PUSH1 0x20 MUL DUP3 ADD SWAP2 JUMPDEST DUP2 SLOAD DUP2 MSTORE PUSH1 0x20 ADD SWAP1 PUSH1 0x1 ADD SWAP1 DUP1 DUP4 GT PUSH2 0x1015 JUMPI JUMPDEST POP POP POP POP POP DUP2 MSTORE PUSH1 0x20 ADD SWAP1 PUSH1 0x1 ADD SWAP1 PUSH2 0xFDA JUMP JUMPDEST POP POP POP POP SWAP2 POP SWAP4 POP SWAP4 POP POP POP SWAP2 POP SWAP2 JUMP JUMPDEST PUSH1 0x3 PUSH1 0x0 SWAP1 SLOAD SWAP1 PUSH2 0x100 EXP SWAP1 DIV PUSH20 0xFFFFFFFFFFFFFFFFFFFFFFFFFFFFFFFFFFFFFFFF AND DUP2 JUMP JUMPDEST PUSH1 0x60 PUSH1 0x0 DUP1 PUSH1 0x0 DUP1 PUSH1 0x0 DUP1 DUP8 DUP2 SLOAD DUP2 LT PUSH2 0x1091 JUMPI PUSH2 0x1090 PUSH2 0x27A5 JUMP JUMPDEST JUMPDEST SWAP1 PUSH1 0x0 MSTORE PUSH1 0x20 PUSH1 0x0 KECCAK256 SWAP1 PUSH1 0xC MUL ADD SWAP1 POP PUSH1 0x0 DUP2 PUSH1 0x8 ADD PUSH1 0x0 SWAP1 SLOAD SWAP1 PUSH2 0x100 EXP SWAP1 DIV PUSH1 0xFF AND DUP1 ISZERO PUSH2 0x10C4 JUMPI POP DUP2 PUSH1 0xB ADD SLOAD TIMESTAMP LT JUMPDEST ISZERO PUSH2 0x10DC JUMPI TIMESTAMP DUP3 PUSH1 0xB ADD SLOAD PUSH2 0x10D9 SWAP2 SWAP1 PUSH2 0x2952 JUMP JUMPDEST SWAP1 POP JUMPDEST DUP2 PUSH1 0x0 ADD DUP3 PUSH1 0x8 ADD PUSH1 0x0 SWAP1 SLOAD SWAP1 PUSH2 0x100 EXP SWAP1 DIV PUSH1 0xFF AND DUP4 PUSH1 0x8 ADD PUSH1 0x1 SWAP1 SLOAD SWAP1 PUSH2 0x100 EXP SWAP1 DIV PUSH1 0xFF AND DUP5 PUSH1 0x9 ADD SLOAD DUP5 DUP5 DUP1 SLOAD PUSH2 0x1116 SWAP1 PUSH2 0x2803 JUMP JUMPDEST DUP1 PUSH1 0x1F ADD PUSH1 0x20 DUP1 SWAP2 DIV MUL PUSH1 0x20 ADD PUSH1 0x40 MLOAD SWAP1 DUP2 ADD PUSH1 0x40 MSTORE DUP1 SWAP3 SWAP2 SWAP1 DUP2 DUP2 MSTORE PUSH1 0x20 ADD DUP3 DUP1 SLOAD PUSH2 0x1142 SWAP1 PUSH2 0x2803 JUMP JUMPDEST DUP1 ISZERO PUSH2 0x118F JUMPI DUP1 PUSH1 0x1F LT PUSH2 0x1164 JUMPI PUSH2 0x100 DUP1 DUP4 SLOAD DIV MUL DUP4 MSTORE SWAP2 PUSH1 0x20 ADD SWAP2 PUSH2 0x118F JUMP JUMPDEST DUP3 ADD SWAP2 SWAP1 PUSH1 0x0 MSTORE PUSH1 0x20 PUSH1 0x0 KECCAK256 SWAP1 JUMPDEST DUP2 SLOAD DUP2 MSTORE SWAP1 PUSH1 0x1 ADD SWAP1 PUSH1 0x20 ADD DUP1 DUP4 GT PUSH2 0x1172 JUMPI DUP3 SWAP1 SUB PUSH1 0x1F AND DUP3 ADD SWAP2 JUMPDEST POP POP POP POP POP SWAP5 POP SWAP7 POP SWAP7 POP SWAP7 POP SWAP7 POP SWAP7 POP POP POP SWAP2 SWAP4 SWAP6 SWAP1 SWAP3 SWAP5 POP JUMP JUMPDEST PUSH1 0x1 SLOAD DUP2 JUMP JUMPDEST PUSH2 0x11B9 PUSH2 0x1BF6 JUMP JUMPDEST PUSH1 0x60 PUSH1 0x0 DUP1 SLOAD SWAP1 POP DUP4 LT PUSH2 0x1202 JUMPI PUSH1 0x40 MLOAD PUSH32 0x8C379A000000000000000000000000000000000000000000000000000000000 DUP2 MSTORE PUSH1 0x4 ADD PUSH2 0x11F9 SWAP1 PUSH2 0x2D3F JUMP JUMPDEST PUSH1 0x40 MLOAD DUP1 SWAP2 SUB SWAP1 REVERT JUMPDEST PUSH1 0x0 DUP1 DUP5 DUP2 SLOAD DUP2 LT PUSH2 0x1217 JUMPI PUSH2 0x1216 PUSH2 0x27A5 JUMP JUMPDEST JUMPDEST SWAP1 PUSH1 0x0 MSTORE PUSH1 0x20 PUSH1 0x0 KECCAK256 SWAP1 PUSH1 0xC MUL ADD SWAP1 POP DUP1 PUSH1 0x8 ADD PUSH1 0x1 SWAP1 SLOAD SWAP1 PUSH2 0x100 EXP SWAP1 DIV PUSH1 0xFF AND PUSH2 0x1278 JUMPI PUSH1 0x40 MLOAD PUSH32 0x8C379A000000000000000000000000000000000000000000000000000000000 DUP2 MSTORE PUSH1 0x4 ADD PUSH2 0x126F SWAP1 PUSH2 0x2E19 JUMP JUMPDEST PUSH1 0x40 MLOAD DUP1 SWAP2 SUB SWAP1 REVERT JUMPDEST PUSH1 0x8 PUSH1 0x0 DUP6 DUP2 MSTORE PUSH1 0x20 ADD SWAP1 DUP2 MSTORE PUSH1 0x20 ADD PUSH1 0x0 KECCAK256 DUP2 PUSH1 0x1 ADD DUP2 PUSH1 0x3 DUP1 PUSH1 0x20 MUL PUSH1 0x40 MLOAD SWAP1 DUP2 ADD PUSH1 0x40 MSTORE DUP1 SWAP3 SWAP2 SWAP1 PUSH1 0x0 SWAP1 JUMPDEST DUP3 DUP3 LT ISZERO PUSH2 0x132F JUMPI DUP4 DUP3 PUSH1 0x2 MUL ADD PUSH1 0x40 MLOAD DUP1 PUSH1 0x40 ADD PUSH1 0x40 MSTORE SWAP1 DUP2 PUSH1 0x0 DUP3 ADD PUSH1 0x0 SWAP1 SLOAD SWAP1 PUSH2 0x100 EXP SWAP1 DIV PUSH20 0xFFFFFFFFFFFFFFFFFFFFFFFFFFFFFFFFFFFFFFFF AND PUSH20 0xFFFFFFFFFFFFFFFFFFFFFFFFFFFFFFFFFFFFFFFF AND PUSH20 0xFFFFFFFFFFFFFFFFFFFFFFFFFFFFFFFFFFFFFFFF AND DUP2 MSTORE PUSH1 0x20 ADD PUSH1 0x1 DUP3 ADD SLOAD DUP2 MSTORE POP POP DUP2 MSTORE PUSH1 0x20 ADD SWAP1 PUSH1 0x1 ADD SWAP1 PUSH2 0x12A7 JUMP JUMPDEST POP POP POP POP SWAP2 POP DUP1 DUP1 SLOAD PUSH2 0x1341 SWAP1 PUSH2 0x2803 JUMP JUMPDEST DUP1 PUSH1 0x1F ADD PUSH1 0x20 DUP1 SWAP2 DIV MUL PUSH1 0x20 ADD PUSH1 0x40 MLOAD SWAP1 DUP2 ADD PUSH1 0x40 MSTORE DUP1 SWAP3 SWAP2 SWAP1 DUP2 DUP2 MSTORE PUSH1 0x20 ADD DUP3 DUP1 SLOAD PUSH2 0x136D SWAP1 PUSH2 0x2803 JUMP JUMPDEST DUP1 ISZERO PUSH2 0x13BA JUMPI DUP1 PUSH1 0x1F LT PUSH2 0x138F JUMPI PUSH2 0x100 DUP1 DUP4 SLOAD DIV MUL DUP4 MSTORE SWAP2 PUSH1 0x20 ADD SWAP2 PUSH2 0x13BA JUMP JUMPDEST DUP3 ADD SWAP2 SWAP1 PUSH1 0x0 MSTORE PUSH1 0x20 PUSH1 0x0 KECCAK256 SWAP1 JUMPDEST DUP2 SLOAD DUP2 MSTORE SWAP1 PUSH1 0x1 ADD SWAP1 PUSH1 0x20 ADD DUP1 DUP4 GT PUSH2 0x139D JUMPI DUP3 SWAP1 SUB PUSH1 0x1F AND DUP3 ADD SWAP2 JUMPDEST POP POP POP POP POP SWAP1 POP SWAP3 POP SWAP3 POP POP SWAP2 POP SWAP2 JUMP JUMPDEST PUSH1 0x0 DUP1 DUP3 DUP2 SLOAD DUP2 LT PUSH2 0x13E0 JUMPI PUSH2 0x13DF PUSH2 0x27A5 JUMP JUMPDEST JUMPDEST SWAP1 PUSH1 0x0 MSTORE PUSH1 0x20 PUSH1 0x0 KECCAK256 SWAP1 PUSH1 0xC MUL ADD PUSH1 0x9 ADD SLOAD SWAP1 POP PUSH1 0x0 PUSH1 0x40 MLOAD DUP1 PUSH1 0x60 ADD PUSH1 0x40 MSTORE DUP1 PUSH1 0x64 PUSH1 0x3C DUP6 PUSH2 0x1410 SWAP2 SWAP1 PUSH2 0x2E39 JUMP JUMPDEST PUSH2 0x141A SWAP2 SWAP1 PUSH2 0x2EAA JUMP JUMPDEST DUP2 MSTORE PUSH1 0x20 ADD PUSH1 0x64 PUSH1 0x1E DUP6 PUSH2 0x142E SWAP2 SWAP1 PUSH2 0x2E39 JUMP JUMPDEST PUSH2 0x1438 SWAP2 SWAP1 PUSH2 0x2EAA JUMP JUMPDEST DUP2 MSTORE PUSH1 0x20 ADD PUSH1 0x64 PUSH1 0xA DUP6 PUSH2 0x144C SWAP2 SWAP1 PUSH2 0x2E39 JUMP JUMPDEST PUSH2 0x1456 SWAP2 SWAP1 PUSH2 0x2EAA JUMP JUMPDEST DUP2 MSTORE POP SWAP1 POP PUSH1 0x0 JUMPDEST PUSH1 0x8 PUSH1 0x0 DUP6 DUP2 MSTORE PUSH1 0x20 ADD SWAP1 DUP2 MSTORE PUSH1 0x20 ADD PUSH1 0x0 KECCAK256 POP PUSH1 0x3 DUP2 PUSH1 0xFF AND LT ISZERO PUSH2 0x168B JUMPI PUSH1 0x0 PUSH20 0xFFFFFFFFFFFFFFFFFFFFFFFFFFFFFFFFFFFFFFFF AND PUSH1 0x8 PUSH1 0x0 DUP7 DUP2 MSTORE PUSH1 0x20 ADD SWAP1 DUP2 MSTORE PUSH1 0x20 ADD PUSH1 0x0 KECCAK256 DUP3 PUSH1 0xFF AND PUSH1 0x3 DUP2 LT PUSH2 0x14BE JUMPI PUSH2 0x14BD PUSH2 0x27A5 JUMP JUMPDEST JUMPDEST PUSH1 0x2 MUL ADD PUSH1 0x0 ADD PUSH1 0x0 SWAP1 SLOAD SWAP1 PUSH2 0x100 EXP SWAP1 DIV PUSH20 0xFFFFFFFFFFFFFFFFFFFFFFFFFFFFFFFFFFFFFFFF AND PUSH20 0xFFFFFFFFFFFFFFFFFFFFFFFFFFFFFFFFFFFFFFFF AND EQ PUSH2 0x1678 JUMPI PUSH1 0x8 PUSH1 0x0 DUP6 DUP2 MSTORE PUSH1 0x20 ADD SWAP1 DUP2 MSTORE PUSH1 0x20 ADD PUSH1 0x0 KECCAK256 DUP2 PUSH1 0xFF AND PUSH1 0x3 DUP2 LT PUSH2 0x1529 JUMPI PUSH2 0x1528 PUSH2 0x27A5 JUMP JUMPDEST JUMPDEST PUSH1 0x2 MUL ADD PUSH1 0x0 ADD PUSH1 0x0 SWAP1 SLOAD SWAP1 PUSH2 0x100 EXP SWAP1 DIV PUSH20 0xFFFFFFFFFFFFFFFFFFFFFFFFFFFFFFFFFFFFFFFF AND PUSH20 0xFFFFFFFFFFFFFFFFFFFFFFFFFFFFFFFFFFFFFFFF AND PUSH2 0x8FC DUP4 DUP4 PUSH1 0xFF AND PUSH1 0x3 DUP2 LT PUSH2 0x1580 JUMPI PUSH2 0x157F PUSH2 0x27A5 JUMP JUMPDEST JUMPDEST PUSH1 0x20 MUL ADD MLOAD SWAP1 DUP2 ISZERO MUL SWAP1 PUSH1 0x40 MLOAD PUSH1 0x0 PUSH1 0x40 MLOAD DUP1 DUP4 SUB DUP2 DUP6 DUP9 DUP9 CALL SWAP4 POP POP POP POP ISZERO DUP1 ISZERO PUSH2 0x15B0 JUMPI RETURNDATASIZE PUSH1 0x0 DUP1 RETURNDATACOPY RETURNDATASIZE PUSH1 0x0 REVERT JUMPDEST POP PUSH1 0x8 PUSH1 0x0 DUP6 DUP2 MSTORE PUSH1 0x20 ADD SWAP1 DUP2 MSTORE PUSH1 0x20 ADD PUSH1 0x0 KECCAK256 DUP2 PUSH1 0xFF AND PUSH1 0x3 DUP2 LT PUSH2 0x15D9 JUMPI PUSH2 0x15D8 PUSH2 0x27A5 JUMP JUMPDEST JUMPDEST PUSH1 0x2 MUL ADD PUSH1 0x0 ADD PUSH1 0x0 SWAP1 SLOAD SWAP1 PUSH2 0x100 EXP SWAP1 DIV PUSH20 0xFFFFFFFFFFFFFFFFFFFFFFFFFFFFFFFFFFFFFFFF AND PUSH20 0xFFFFFFFFFFFFFFFFFFFFFFFFFFFFFFFFFFFFFFFF AND DUP5 PUSH32 0xBDEDB55C2D951CADFC4DAC45910010E1291DAF52CD715AAEA0A9C326C922D745 DUP5 DUP5 PUSH1 0xFF AND PUSH1 0x3 DUP2 LT PUSH2 0x164F JUMPI PUSH2 0x164E PUSH2 0x27A5 JUMP JUMPDEST JUMPDEST PUSH1 0x20 MUL ADD MLOAD PUSH1 0x1 DUP6 PUSH2 0x1661 SWAP2 SWAP1 PUSH2 0x2EE8 JUMP JUMPDEST PUSH1 0x40 MLOAD PUSH2 0x166F SWAP3 SWAP2 SWAP1 PUSH2 0x2F2C JUMP JUMPDEST PUSH1 0x40 MLOAD DUP1 SWAP2 SUB SWAP1 LOG3 JUMPDEST DUP1 DUP1 PUSH2 0x1683 SWAP1 PUSH2 0x2F55 JUMP JUMPDEST SWAP2 POP POP PUSH2 0x145E JUMP JUMPDEST POP PUSH1 0x0 DUP1 DUP5 DUP2 SLOAD DUP2 LT PUSH2 0x16A1 JUMPI PUSH2 0x16A0 PUSH2 0x27A5 JUMP JUMPDEST JUMPDEST SWAP1 PUSH1 0x0 MSTORE PUSH1 0x20 PUSH1 0x0 KECCAK256 SWAP1 PUSH1 0xC MUL ADD PUSH1 0x9 ADD DUP2 SWAP1 SSTORE POP POP POP POP JUMP JUMPDEST PUSH1 0x0 DUP1 DUP3 PUSH1 0x0 PUSH1 0x2 DUP2 LT PUSH2 0x16D2 JUMPI PUSH2 0x16D1 PUSH2 0x27A5 JUMP JUMPDEST JUMPDEST PUSH1 0x20 MUL ADD MLOAD DUP5 PUSH1 0x0 PUSH1 0x2 DUP2 LT PUSH2 0x16EB JUMPI PUSH2 0x16EA PUSH2 0x27A5 JUMP JUMPDEST JUMPDEST PUSH1 0x20 MUL ADD MLOAD GT PUSH2 0x1736 JUMPI DUP4 PUSH1 0x0 PUSH1 0x2 DUP2 LT PUSH2 0x1709 JUMPI PUSH2 0x1708 PUSH2 0x27A5 JUMP JUMPDEST JUMPDEST PUSH1 0x20 MUL ADD MLOAD DUP4 PUSH1 0x0 PUSH1 0x2 DUP2 LT PUSH2 0x1722 JUMPI PUSH2 0x1721 PUSH2 0x27A5 JUMP JUMPDEST JUMPDEST PUSH1 0x20 MUL ADD MLOAD PUSH2 0x1731 SWAP2 SWAP1 PUSH2 0x2952 JUMP JUMPDEST PUSH2 0x1773 JUMP JUMPDEST DUP3 PUSH1 0x0 PUSH1 0x2 DUP2 LT PUSH2 0x174A JUMPI PUSH2 0x1749 PUSH2 0x27A5 JUMP JUMPDEST JUMPDEST PUSH1 0x20 MUL ADD MLOAD DUP5 PUSH1 0x0 PUSH1 0x2 DUP2 LT PUSH2 0x1763 JUMPI PUSH2 0x1762 PUSH2 0x27A5 JUMP JUMPDEST JUMPDEST PUSH1 0x20 MUL ADD MLOAD PUSH2 0x1772 SWAP2 SWAP1 PUSH2 0x2952 JUMP JUMPDEST JUMPDEST SWAP1 POP PUSH1 0x0 DUP4 PUSH1 0x1 PUSH1 0x2 DUP2 LT PUSH2 0x178B JUMPI PUSH2 0x178A PUSH2 0x27A5 JUMP JUMPDEST JUMPDEST PUSH1 0x20 MUL ADD MLOAD DUP6 PUSH1 0x1 PUSH1 0x2 DUP2 LT PUSH2 0x17A4 JUMPI PUSH2 0x17A3 PUSH2 0x27A5 JUMP JUMPDEST JUMPDEST PUSH1 0x20 MUL ADD MLOAD GT PUSH2 0x17EF JUMPI DUP5 PUSH1 0x1 PUSH1 0x2 DUP2 LT PUSH2 0x17C2 JUMPI PUSH2 0x17C1 PUSH2 0x27A5 JUMP JUMPDEST JUMPDEST PUSH1 0x20 MUL ADD MLOAD DUP5 PUSH1 0x1 PUSH1 0x2 DUP2 LT PUSH2 0x17DB JUMPI PUSH2 0x17DA PUSH2 0x27A5 JUMP JUMPDEST JUMPDEST PUSH1 0x20 MUL ADD MLOAD PUSH2 0x17EA SWAP2 SWAP1 PUSH2 0x2952 JUMP JUMPDEST PUSH2 0x182C JUMP JUMPDEST DUP4 PUSH1 0x1 PUSH1 0x2 DUP2 LT PUSH2 0x1803 JUMPI PUSH2 0x1802 PUSH2 0x27A5 JUMP JUMPDEST JUMPDEST PUSH1 0x20 MUL ADD MLOAD DUP6 PUSH1 0x1 PUSH1 0x2 DUP2 LT PUSH2 0x181C JUMPI PUSH2 0x181B PUSH2 0x27A5 JUMP JUMPDEST JUMPDEST PUSH1 0x20 MUL ADD MLOAD PUSH2 0x182B SWAP2 SWAP1 PUSH2 0x2952 JUMP JUMPDEST JUMPDEST SWAP1 POP DUP1 DUP2 PUSH2 0x183A SWAP2 SWAP1 PUSH2 0x2E39 JUMP JUMPDEST DUP3 DUP4 PUSH2 0x1846 SWAP2 SWAP1 PUSH2 0x2E39 JUMP JUMPDEST PUSH2 0x1850 SWAP2 SWAP1 PUSH2 0x291E JUMP JUMPDEST SWAP3 POP POP POP SWAP3 SWAP2 POP POP JUMP JUMPDEST PUSH1 0x0 PUSH1 0x8 PUSH1 0x0 DUP5 DUP2 MSTORE PUSH1 0x20 ADD SWAP1 DUP2 MSTORE PUSH1 0x20 ADD PUSH1 0x0 KECCAK256 SWAP1 POP PUSH1 0x0 PUSH1 0x1 SWAP1 POP PUSH1 0x0 JUMPDEST PUSH1 0x3 DUP2 LT ISZERO PUSH2 0x19A3 JUMPI DUP4 PUSH1 0x0 ADD MLOAD PUSH20 0xFFFFFFFFFFFFFFFFFFFFFFFFFFFFFFFFFFFFFFFF AND DUP4 DUP3 PUSH1 0x3 DUP2 LT PUSH2 0x18B1 JUMPI PUSH2 0x18B0 PUSH2 0x27A5 JUMP JUMPDEST JUMPDEST PUSH1 0x2 MUL ADD PUSH1 0x0 ADD PUSH1 0x0 SWAP1 SLOAD SWAP1 PUSH2 0x100 EXP SWAP1 DIV PUSH20 0xFFFFFFFFFFFFFFFFFFFFFFFFFFFFFFFFFFFFFFFF AND PUSH20 0xFFFFFFFFFFFFFFFFFFFFFFFFFFFFFFFFFFFFFFFF AND SUB PUSH2 0x1990 JUMPI DUP3 DUP2 PUSH1 0x3 DUP2 LT PUSH2 0x1907 JUMPI PUSH2 0x1906 PUSH2 0x27A5 JUMP JUMPDEST JUMPDEST PUSH1 0x2 MUL ADD PUSH1 0x1 ADD SLOAD DUP5 PUSH1 0x20 ADD MLOAD LT ISZERO PUSH2 0x1987 JUMPI DUP4 DUP4 DUP3 PUSH1 0x3 DUP2 LT PUSH2 0x192E JUMPI PUSH2 0x192D PUSH2 0x27A5 JUMP JUMPDEST JUMPDEST PUSH1 0x2 MUL ADD PUSH1 0x0 DUP3 ADD MLOAD DUP2 PUSH1 0x0 ADD PUSH1 0x0 PUSH2 0x100 EXP DUP2 SLOAD DUP2 PUSH20 0xFFFFFFFFFFFFFFFFFFFFFFFFFFFFFFFFFFFFFFFF MUL NOT AND SWAP1 DUP4 PUSH20 0xFFFFFFFFFFFFFFFFFFFFFFFFFFFFFFFFFFFFFFFF AND MUL OR SWAP1 SSTORE POP PUSH1 0x20 DUP3 ADD MLOAD DUP2 PUSH1 0x1 ADD SSTORE SWAP1 POP POP JUMPDEST PUSH1 0x0 SWAP2 POP PUSH2 0x19A3 JUMP JUMPDEST DUP1 DUP1 PUSH2 0x199B SWAP1 PUSH2 0x2D5F JUMP JUMPDEST SWAP2 POP POP PUSH2 0x187A JUMP JUMPDEST POP DUP1 ISZERO PUSH2 0x1BB0 JUMPI PUSH1 0x0 JUMPDEST PUSH1 0x3 DUP2 LT ISZERO PUSH2 0x1BAE JUMPI PUSH1 0x0 PUSH20 0xFFFFFFFFFFFFFFFFFFFFFFFFFFFFFFFFFFFFFFFF AND DUP4 DUP3 PUSH1 0x3 DUP2 LT PUSH2 0x19E1 JUMPI PUSH2 0x19E0 PUSH2 0x27A5 JUMP JUMPDEST JUMPDEST PUSH1 0x2 MUL ADD PUSH1 0x0 ADD PUSH1 0x0 SWAP1 SLOAD SWAP1 PUSH2 0x100 EXP SWAP1 DIV PUSH20 0xFFFFFFFFFFFFFFFFFFFFFFFFFFFFFFFFFFFFFFFF AND PUSH20 0xFFFFFFFFFFFFFFFFFFFFFFFFFFFFFFFFFFFFFFFF AND EQ DUP1 PUSH2 0x1A48 JUMPI POP DUP3 DUP2 PUSH1 0x3 DUP2 LT PUSH2 0x1A39 JUMPI PUSH2 0x1A38 PUSH2 0x27A5 JUMP JUMPDEST JUMPDEST PUSH1 0x2 MUL ADD PUSH1 0x1 ADD SLOAD DUP5 PUSH1 0x20 ADD MLOAD LT JUMPDEST ISZERO PUSH2 0x1B9B JUMPI PUSH1 0x0 PUSH1 0x1 PUSH1 0x3 PUSH2 0x1A5D SWAP2 SWAP1 PUSH2 0x2952 JUMP JUMPDEST SWAP1 POP JUMPDEST DUP2 DUP2 GT ISZERO PUSH2 0x1B29 JUMPI DUP4 PUSH1 0x1 DUP3 PUSH2 0x1A76 SWAP2 SWAP1 PUSH2 0x2952 JUMP JUMPDEST PUSH1 0x3 DUP2 LT PUSH2 0x1A87 JUMPI PUSH2 0x1A86 PUSH2 0x27A5 JUMP JUMPDEST JUMPDEST PUSH1 0x2 MUL ADD DUP5 DUP3 PUSH1 0x3 DUP2 LT PUSH2 0x1A9E JUMPI PUSH2 0x1A9D PUSH2 0x27A5 JUMP JUMPDEST JUMPDEST PUSH1 0x2 MUL ADD PUSH1 0x0 DUP3 ADD PUSH1 0x0 SWAP1 SLOAD SWAP1 PUSH2 0x100 EXP SWAP1 DIV PUSH20 0xFFFFFFFFFFFFFFFFFFFFFFFFFFFFFFFFFFFFFFFF AND DUP2 PUSH1 0x0 ADD PUSH1 0x0 PUSH2 0x100 EXP DUP2 SLOAD DUP2 PUSH20 0xFFFFFFFFFFFFFFFFFFFFFFFFFFFFFFFFFFFFFFFF MUL NOT AND SWAP1 DUP4 PUSH20 0xFFFFFFFFFFFFFFFFFFFFFFFFFFFFFFFFFFFFFFFF AND MUL OR SWAP1 SSTORE POP PUSH1 0x1 DUP3 ADD SLOAD DUP2 PUSH1 0x1 ADD SSTORE SWAP1 POP POP DUP1 DUP1 PUSH2 0x1B21 SWAP1 PUSH2 0x2F7E JUMP JUMPDEST SWAP2 POP POP PUSH2 0x1A60 JUMP JUMPDEST POP DUP4 DUP4 DUP3 PUSH1 0x3 DUP2 LT PUSH2 0x1B3E JUMPI PUSH2 0x1B3D PUSH2 0x27A5 JUMP JUMPDEST JUMPDEST PUSH1 0x2 MUL ADD PUSH1 0x0 DUP3 ADD MLOAD DUP2 PUSH1 0x0 ADD PUSH1 0x0 PUSH2 0x100 EXP DUP2 SLOAD DUP2 PUSH20 0xFFFFFFFFFFFFFFFFFFFFFFFFFFFFFFFFFFFFFFFF MUL NOT AND SWAP1 DUP4 PUSH20 0xFFFFFFFFFFFFFFFFFFFFFFFFFFFFFFFFFFFFFFFF AND MUL OR SWAP1 SSTORE POP PUSH1 0x20 DUP3 ADD MLOAD DUP2 PUSH1 0x1 ADD SSTORE SWAP1 POP POP PUSH2 0x1BAE JUMP JUMPDEST DUP1 DUP1 PUSH2 0x1BA6 SWAP1 PUSH2 0x2D5F JUMP JUMPDEST SWAP2 POP POP PUSH2 0x19AD JUMP JUMPDEST POP JUMPDEST POP POP POP POP JUMP JUMPDEST DUP3 PUSH1 0x2 DUP2 ADD SWAP3 DUP3 ISZERO PUSH2 0x1BE5 JUMPI SWAP2 PUSH1 0x20 MUL DUP3 ADD JUMPDEST DUP3 DUP2 GT ISZERO PUSH2 0x1BE4 JUMPI DUP3 MLOAD DUP3 SSTORE SWAP2 PUSH1 0x20 ADD SWAP2 SWAP1 PUSH1 0x1 ADD SWAP1 PUSH2 0x1BC9 JUMP JUMPDEST JUMPDEST POP SWAP1 POP PUSH2 0x1BF2 SWAP2 SWAP1 PUSH2 0x1C23 JUMP JUMPDEST POP SWAP1 JUMP JUMPDEST PUSH1 0x40 MLOAD DUP1 PUSH1 0x60 ADD PUSH1 0x40 MSTORE DUP1 PUSH1 0x3 SWAP1 JUMPDEST PUSH2 0x1C0D PUSH2 0x1C40 JUMP JUMPDEST DUP2 MSTORE PUSH1 0x20 ADD SWAP1 PUSH1 0x1 SWAP1 SUB SWAP1 DUP2 PUSH2 0x1C05 JUMPI SWAP1 POP POP SWAP1 JUMP JUMPDEST JUMPDEST DUP1 DUP3 GT ISZERO PUSH2 0x1C3C JUMPI PUSH1 0x0 DUP2 PUSH1 0x0 SWAP1 SSTORE POP PUSH1 0x1 ADD PUSH2 0x1C24 JUMP JUMPDEST POP SWAP1 JUMP JUMPDEST PUSH1 0x40 MLOAD DUP1 PUSH1 0x40 ADD PUSH1 0x40 MSTORE DUP1 PUSH1 0x0 PUSH20 0xFFFFFFFFFFFFFFFFFFFFFFFFFFFFFFFFFFFFFFFF AND DUP2 MSTORE PUSH1 0x20 ADD PUSH1 0x0 DUP2 MSTORE POP SWAP1 JUMP JUMPDEST PUSH1 0x0 PUSH1 0x40 MLOAD SWAP1 POP SWAP1 JUMP JUMPDEST PUSH1 0x0 DUP1 REVERT JUMPDEST PUSH1 0x0 DUP1 REVERT JUMPDEST PUSH1 0x0 PUSH20 0xFFFFFFFFFFFFFFFFFFFFFFFFFFFFFFFFFFFFFFFF DUP3 AND SWAP1 POP SWAP2 SWAP1 POP JUMP JUMPDEST PUSH1 0x0 PUSH2 0x1CAF DUP3 PUSH2 0x1C84 JUMP JUMPDEST SWAP1 POP SWAP2 SWAP1 POP JUMP JUMPDEST PUSH2 0x1CBF DUP2 PUSH2 0x1CA4 JUMP JUMPDEST DUP2 EQ PUSH2 0x1CCA JUMPI PUSH1 0x0 DUP1 REVERT JUMPDEST POP JUMP JUMPDEST PUSH1 0x0 DUP2 CALLDATALOAD SWAP1 POP PUSH2 0x1CDC DUP2 PUSH2 0x1CB6 JUMP JUMPDEST SWAP3 SWAP2 POP POP JUMP JUMPDEST PUSH1 0x0 PUSH1 0x20 DUP3 DUP5 SUB SLT ISZERO PUSH2 0x1CF8 JUMPI PUSH2 0x1CF7 PUSH2 0x1C7A JUMP JUMPDEST JUMPDEST PUSH1 0x0 PUSH2 0x1D06 DUP5 DUP3 DUP6 ADD PUSH2 0x1CCD JUMP JUMPDEST SWAP2 POP POP SWAP3 SWAP2 POP POP JUMP JUMPDEST PUSH1 0x0 DUP2 SWAP1 POP SWAP2 SWAP1 POP JUMP JUMPDEST PUSH2 0x1D22 DUP2 PUSH2 0x1D0F JUMP JUMPDEST DUP3 MSTORE POP POP JUMP JUMPDEST PUSH1 0x0 PUSH1 0x40 DUP3 ADD SWAP1 POP PUSH2 0x1D3D PUSH1 0x0 DUP4 ADD DUP6 PUSH2 0x1D19 JUMP JUMPDEST PUSH2 0x1D4A PUSH1 0x20 DUP4 ADD DUP5 PUSH2 0x1D19 JUMP JUMPDEST SWAP4 SWAP3 POP POP POP JUMP JUMPDEST PUSH1 0x0 PUSH1 0x20 DUP3 ADD SWAP1 POP PUSH2 0x1D66 PUSH1 0x0 DUP4 ADD DUP5 PUSH2 0x1D19 JUMP JUMPDEST SWAP3 SWAP2 POP POP JUMP JUMPDEST PUSH2 0x1D75 DUP2 PUSH2 0x1D0F JUMP JUMPDEST DUP2 EQ PUSH2 0x1D80 JUMPI PUSH1 0x0 DUP1 REVERT JUMPDEST POP JUMP JUMPDEST PUSH1 0x0 DUP2 CALLDATALOAD SWAP1 POP PUSH2 0x1D92 DUP2 PUSH2 0x1D6C JUMP JUMPDEST SWAP3 SWAP2 POP POP JUMP JUMPDEST PUSH1 0x0 DUP1 REVERT JUMPDEST PUSH1 0x0 PUSH1 0x1F NOT PUSH1 0x1F DUP4 ADD AND SWAP1 POP SWAP2 SWAP1 POP JUMP JUMPDEST PUSH32 0x4E487B7100000000000000000000000000000000000000000000000000000000 PUSH1 0x0 MSTORE PUSH1 0x41 PUSH1 0x4 MSTORE PUSH1 0x24 PUSH1 0x0 REVERT JUMPDEST PUSH2 0x1DE6 DUP3 PUSH2 0x1D9D JUMP JUMPDEST DUP2 ADD DUP2 DUP2 LT PUSH8 0xFFFFFFFFFFFFFFFF DUP3 GT OR ISZERO PUSH2 0x1E05 JUMPI PUSH2 0x1E04 PUSH2 0x1DAE JUMP JUMPDEST JUMPDEST DUP1 PUSH1 0x40 MSTORE POP POP POP JUMP JUMPDEST PUSH1 0x0 PUSH2 0x1E18 PUSH2 0x1C70 JUMP JUMPDEST SWAP1 POP PUSH2 0x1E24 DUP3 DUP3 PUSH2 0x1DDD JUMP JUMPDEST SWAP2 SWAP1 POP JUMP JUMPDEST PUSH1 0x0 PUSH8 0xFFFFFFFFFFFFFFFF DUP3 GT ISZERO PUSH2 0x1E44 JUMPI PUSH2 0x1E43 PUSH2 0x1DAE JUMP JUMPDEST JUMPDEST PUSH1 0x20 DUP3 MUL SWAP1 POP SWAP2 SWAP1 POP JUMP JUMPDEST PUSH1 0x0 DUP1 REVERT JUMPDEST PUSH1 0x0 PUSH2 0x1E67 PUSH2 0x1E62 DUP5 PUSH2 0x1E29 JUMP JUMPDEST PUSH2 0x1E0E JUMP JUMPDEST SWAP1 POP DUP1 PUSH1 0x20 DUP5 MUL DUP4 ADD DUP6 DUP2 GT ISZERO PUSH2 0x1E81 JUMPI PUSH2 0x1E80 PUSH2 0x1E4F JUMP JUMPDEST JUMPDEST DUP4 JUMPDEST DUP2 DUP2 LT ISZERO PUSH2 0x1EAA JUMPI DUP1 PUSH2 0x1E96 DUP9 DUP3 PUSH2 0x1D83 JUMP JUMPDEST DUP5 MSTORE PUSH1 0x20 DUP5 ADD SWAP4 POP POP PUSH1 0x20 DUP2 ADD SWAP1 POP PUSH2 0x1E83 JUMP JUMPDEST POP POP POP SWAP4 SWAP3 POP POP POP JUMP JUMPDEST PUSH1 0x0 DUP3 PUSH1 0x1F DUP4 ADD SLT PUSH2 0x1EC9 JUMPI PUSH2 0x1EC8 PUSH2 0x1D98 JUMP JUMPDEST JUMPDEST PUSH1 0x2 PUSH2 0x1ED6 DUP5 DUP3 DUP6 PUSH2 0x1E54 JUMP JUMPDEST SWAP2 POP POP SWAP3 SWAP2 POP POP JUMP JUMPDEST PUSH1 0x0 DUP1 PUSH1 0x60 DUP4 DUP6 SUB SLT ISZERO PUSH2 0x1EF6 JUMPI PUSH2 0x1EF5 PUSH2 0x1C7A JUMP JUMPDEST JUMPDEST PUSH1 0x0 PUSH2 0x1F04 DUP6 DUP3 DUP7 ADD PUSH2 0x1D83 JUMP JUMPDEST SWAP3 POP POP PUSH1 0x20 PUSH2 0x1F15 DUP6 DUP3 DUP7 ADD PUSH2 0x1EB4 JUMP JUMPDEST SWAP2 POP POP SWAP3 POP SWAP3 SWAP1 POP JUMP JUMPDEST PUSH1 0x0 DUP1 REVERT JUMPDEST PUSH1 0x0 DUP1 REVERT JUMPDEST PUSH1 0x0 DUP1 REVERT JUMPDEST PUSH1 0x0 PUSH8 0xFFFFFFFFFFFFFFFF DUP3 GT ISZERO PUSH2 0x1F49 JUMPI PUSH2 0x1F48 PUSH2 0x1DAE JUMP JUMPDEST JUMPDEST PUSH2 0x1F52 DUP3 PUSH2 0x1D9D JUMP JUMPDEST SWAP1 POP PUSH1 0x20 DUP2 ADD SWAP1 POP SWAP2 SWAP1 POP JUMP JUMPDEST DUP3 DUP2 DUP4 CALLDATACOPY PUSH1 0x0 DUP4 DUP4 ADD MSTORE POP POP POP JUMP JUMPDEST PUSH1 0x0 PUSH2 0x1F81 PUSH2 0x1F7C DUP5 PUSH2 0x1F2E JUMP JUMPDEST PUSH2 0x1E0E JUMP JUMPDEST SWAP1 POP DUP3 DUP2 MSTORE PUSH1 0x20 DUP2 ADD DUP5 DUP5 DUP5 ADD GT ISZERO PUSH2 0x1F9D JUMPI PUSH2 0x1F9C PUSH2 0x1F29 JUMP JUMPDEST JUMPDEST PUSH2 0x1FA8 DUP5 DUP3 DUP6 PUSH2 0x1F5F JUMP JUMPDEST POP SWAP4 SWAP3 POP POP POP JUMP JUMPDEST PUSH1 0x0 DUP3 PUSH1 0x1F DUP4 ADD SLT PUSH2 0x1FC5 JUMPI PUSH2 0x1FC4 PUSH2 0x1D98 JUMP JUMPDEST JUMPDEST DUP2 CALLDATALOAD PUSH2 0x1FD5 DUP5 DUP3 PUSH1 0x20 DUP7 ADD PUSH2 0x1F6E JUMP JUMPDEST SWAP2 POP POP SWAP3 SWAP2 POP POP JUMP JUMPDEST PUSH1 0x0 PUSH2 0x100 DUP3 DUP5 SUB SLT ISZERO PUSH2 0x1FF5 JUMPI PUSH2 0x1FF4 PUSH2 0x1F1F JUMP JUMPDEST JUMPDEST PUSH2 0x1FFF PUSH1 0xA0 PUSH2 0x1E0E JUMP JUMPDEST SWAP1 POP PUSH1 0x0 DUP3 ADD CALLDATALOAD PUSH8 0xFFFFFFFFFFFFFFFF DUP2 GT ISZERO PUSH2 0x201F JUMPI PUSH2 0x201E PUSH2 0x1F24 JUMP JUMPDEST JUMPDEST PUSH2 0x202B DUP5 DUP3 DUP6 ADD PUSH2 0x1FB0 JUMP JUMPDEST PUSH1 0x0 DUP4 ADD MSTORE POP PUSH1 0x20 DUP3 ADD CALLDATALOAD PUSH8 0xFFFFFFFFFFFFFFFF DUP2 GT ISZERO PUSH2 0x204F JUMPI PUSH2 0x204E PUSH2 0x1F24 JUMP JUMPDEST JUMPDEST PUSH2 0x205B DUP5 DUP3 DUP6 ADD PUSH2 0x1FB0 JUMP JUMPDEST PUSH1 0x20 DUP4 ADD MSTORE POP PUSH1 0x40 PUSH2 0x206F DUP5 DUP3 DUP6 ADD PUSH2 0x1EB4 JUMP JUMPDEST PUSH1 0x40 DUP4 ADD MSTORE POP PUSH1 0x80 PUSH2 0x2083 DUP5 DUP3 DUP6 ADD PUSH2 0x1EB4 JUMP JUMPDEST PUSH1 0x60 DUP4 ADD MSTORE POP PUSH1 0xC0 PUSH2 0x2097 DUP5 DUP3 DUP6 ADD PUSH2 0x1EB4 JUMP JUMPDEST PUSH1 0x80 DUP4 ADD MSTORE POP SWAP3 SWAP2 POP POP JUMP JUMPDEST PUSH1 0x0 PUSH1 0x20 DUP3 DUP5 SUB SLT ISZERO PUSH2 0x20B9 JUMPI PUSH2 0x20B8 PUSH2 0x1C7A JUMP JUMPDEST JUMPDEST PUSH1 0x0 DUP3 ADD CALLDATALOAD PUSH8 0xFFFFFFFFFFFFFFFF DUP2 GT ISZERO PUSH2 0x20D7 JUMPI PUSH2 0x20D6 PUSH2 0x1C7F JUMP JUMPDEST JUMPDEST PUSH2 0x20E3 DUP5 DUP3 DUP6 ADD PUSH2 0x1FDE JUMP JUMPDEST SWAP2 POP POP SWAP3 SWAP2 POP POP JUMP JUMPDEST PUSH1 0x0 DUP1 PUSH1 0x40 DUP4 DUP6 SUB SLT ISZERO PUSH2 0x2103 JUMPI PUSH2 0x2102 PUSH2 0x1C7A JUMP JUMPDEST JUMPDEST PUSH1 0x0 PUSH2 0x2111 DUP6 DUP3 DUP7 ADD PUSH2 0x1D83 JUMP JUMPDEST SWAP3 POP POP PUSH1 0x20 PUSH2 0x2122 DUP6 DUP3 DUP7 ADD PUSH2 0x1D83 JUMP JUMPDEST SWAP2 POP POP SWAP3 POP SWAP3 SWAP1 POP JUMP JUMPDEST PUSH2 0x2135 DUP2 PUSH2 0x1CA4 JUMP JUMPDEST DUP3 MSTORE POP POP JUMP JUMPDEST PUSH1 0x0 PUSH1 0x20 DUP3 ADD SWAP1 POP PUSH2 0x2150 PUSH1 0x0 DUP4 ADD DUP5 PUSH2 0x212C JUMP JUMPDEST SWAP3 SWAP2 POP POP JUMP JUMPDEST PUSH1 0x0 PUSH1 0x20 DUP3 DUP5 SUB SLT ISZERO PUSH2 0x216C JUMPI PUSH2 0x216B PUSH2 0x1C7A JUMP JUMPDEST JUMPDEST PUSH1 0x0 PUSH2 0x217A DUP5 DUP3 DUP6 ADD PUSH2 0x1D83 JUMP JUMPDEST SWAP2 POP POP SWAP3 SWAP2 POP POP JUMP JUMPDEST PUSH1 0x0 DUP2 MLOAD SWAP1 POP SWAP2 SWAP1 POP JUMP JUMPDEST PUSH1 0x0 DUP3 DUP3 MSTORE PUSH1 0x20 DUP3 ADD SWAP1 POP SWAP3 SWAP2 POP POP JUMP JUMPDEST PUSH1 0x0 DUP2 SWAP1 POP PUSH1 0x20 DUP3 ADD SWAP1 POP SWAP2 SWAP1 POP JUMP JUMPDEST PUSH1 0x0 PUSH1 0x2 SWAP1 POP SWAP2 SWAP1 POP JUMP JUMPDEST PUSH1 0x0 DUP2 SWAP1 POP SWAP3 SWAP2 POP POP JUMP JUMPDEST PUSH1 0x0 DUP2 SWAP1 POP SWAP2 SWAP1 POP JUMP JUMPDEST PUSH2 0x21D8 DUP2 PUSH2 0x1D0F JUMP JUMPDEST DUP3 MSTORE POP POP JUMP JUMPDEST PUSH1 0x0 PUSH2 0x21EA DUP4 DUP4 PUSH2 0x21CF JUMP JUMPDEST PUSH1 0x20 DUP4 ADD SWAP1 POP SWAP3 SWAP2 POP POP JUMP JUMPDEST PUSH1 0x0 PUSH1 0x20 DUP3 ADD SWAP1 POP SWAP2 SWAP1 POP JUMP JUMPDEST PUSH2 0x220C DUP2 PUSH2 0x21AF JUMP JUMPDEST PUSH2 0x2216 DUP2 DUP5 PUSH2 0x21BA JUMP JUMPDEST SWAP3 POP PUSH2 0x2221 DUP3 PUSH2 0x21C5 JUMP JUMPDEST DUP1 PUSH1 0x0 JUMPDEST DUP4 DUP2 LT ISZERO PUSH2 0x2252 JUMPI DUP2 MLOAD PUSH2 0x2239 DUP8 DUP3 PUSH2 0x21DE JUMP JUMPDEST SWAP7 POP PUSH2 0x2244 DUP4 PUSH2 0x21F6 JUMP JUMPDEST SWAP3 POP POP PUSH1 0x1 DUP2 ADD SWAP1 POP PUSH2 0x2225 JUMP JUMPDEST POP POP POP POP POP POP JUMP JUMPDEST PUSH1 0x0 PUSH2 0x2266 DUP4 DUP4 PUSH2 0x2203 JUMP JUMPDEST PUSH1 0x40 DUP4 ADD SWAP1 POP SWAP3 SWAP2 POP POP JUMP JUMPDEST PUSH1 0x0 PUSH1 0x20 DUP3 ADD SWAP1 POP SWAP2 SWAP1 POP JUMP JUMPDEST PUSH1 0x0 PUSH2 0x228A DUP3 PUSH2 0x2183 JUMP JUMPDEST PUSH2 0x2294 DUP2 DUP6 PUSH2 0x218E JUMP JUMPDEST SWAP4 POP PUSH2 0x229F DUP4 PUSH2 0x219F JUMP JUMPDEST DUP1 PUSH1 0x0 JUMPDEST DUP4 DUP2 LT ISZERO PUSH2 0x22D0 JUMPI DUP2 MLOAD PUSH2 0x22B7 DUP9 DUP3 PUSH2 0x225A JUMP JUMPDEST SWAP8 POP PUSH2 0x22C2 DUP4 PUSH2 0x2272 JUMP JUMPDEST SWAP3 POP POP PUSH1 0x1 DUP2 ADD SWAP1 POP PUSH2 0x22A3 JUMP JUMPDEST POP DUP6 SWAP4 POP POP POP POP SWAP3 SWAP2 POP POP JUMP JUMPDEST PUSH1 0x0 DUP2 MLOAD SWAP1 POP SWAP2 SWAP1 POP JUMP JUMPDEST PUSH1 0x0 DUP3 DUP3 MSTORE PUSH1 0x20 DUP3 ADD SWAP1 POP SWAP3 SWAP2 POP POP JUMP JUMPDEST PUSH1 0x0 DUP2 SWAP1 POP PUSH1 0x20 DUP3 ADD SWAP1 POP SWAP2 SWAP1 POP JUMP JUMPDEST PUSH1 0x0 PUSH1 0x20 DUP3 ADD SWAP1 POP SWAP2 SWAP1 POP JUMP JUMPDEST PUSH1 0x0 PUSH2 0x2321 DUP3 PUSH2 0x22DD JUMP JUMPDEST PUSH2 0x232B DUP2 DUP6 PUSH2 0x22E8 JUMP JUMPDEST SWAP4 POP PUSH2 0x2336 DUP4 PUSH2 0x22F9 JUMP JUMPDEST DUP1 PUSH1 0x0 JUMPDEST DUP4 DUP2 LT ISZERO PUSH2 0x2367 JUMPI DUP2 MLOAD PUSH2 0x234E DUP9 DUP3 PUSH2 0x21DE JUMP JUMPDEST SWAP8 POP PUSH2 0x2359 DUP4 PUSH2 0x2309 JUMP JUMPDEST SWAP3 POP POP PUSH1 0x1 DUP2 ADD SWAP1 POP PUSH2 0x233A JUMP JUMPDEST POP DUP6 SWAP4 POP POP POP POP SWAP3 SWAP2 POP POP JUMP JUMPDEST PUSH1 0x0 PUSH1 0x40 DUP3 ADD SWAP1 POP DUP2 DUP2 SUB PUSH1 0x0 DUP4 ADD MSTORE PUSH2 0x238E DUP2 DUP6 PUSH2 0x227F JUMP JUMPDEST SWAP1 POP DUP2 DUP2 SUB PUSH1 0x20 DUP4 ADD MSTORE PUSH2 0x23A2 DUP2 DUP5 PUSH2 0x2316 JUMP JUMPDEST SWAP1 POP SWAP4 SWAP3 POP POP POP JUMP JUMPDEST PUSH1 0x0 DUP2 MLOAD SWAP1 POP SWAP2 SWAP1 POP JUMP JUMPDEST PUSH1 0x0 DUP3 DUP3 MSTORE PUSH1 0x20 DUP3 ADD SWAP1 POP SWAP3 SWAP2 POP POP JUMP JUMPDEST PUSH1 0x0 JUMPDEST DUP4 DUP2 LT ISZERO PUSH2 0x23E5 JUMPI DUP1 DUP3 ADD MLOAD DUP2 DUP5 ADD MSTORE PUSH1 0x20 DUP2 ADD SWAP1 POP PUSH2 0x23CA JUMP JUMPDEST PUSH1 0x0 DUP5 DUP5 ADD MSTORE POP POP POP POP JUMP JUMPDEST PUSH1 0x0 PUSH2 0x23FC DUP3 PUSH2 0x23AB JUMP JUMPDEST PUSH2 0x2406 DUP2 DUP6 PUSH2 0x23B6 JUMP JUMPDEST SWAP4 POP PUSH2 0x2416 DUP2 DUP6 PUSH1 0x20 DUP7 ADD PUSH2 0x23C7 JUMP JUMPDEST PUSH2 0x241F DUP2 PUSH2 0x1D9D JUMP JUMPDEST DUP5 ADD SWAP2 POP POP SWAP3 SWAP2 POP POP JUMP JUMPDEST PUSH1 0x0 DUP2 ISZERO ISZERO SWAP1 POP SWAP2 SWAP1 POP JUMP JUMPDEST PUSH2 0x243F DUP2 PUSH2 0x242A JUMP JUMPDEST DUP3 MSTORE POP POP JUMP JUMPDEST PUSH1 0x0 PUSH1 0xA0 DUP3 ADD SWAP1 POP DUP2 DUP2 SUB PUSH1 0x0 DUP4 ADD MSTORE PUSH2 0x245F DUP2 DUP9 PUSH2 0x23F1 JUMP JUMPDEST SWAP1 POP PUSH2 0x246E PUSH1 0x20 DUP4 ADD DUP8 PUSH2 0x2436 JUMP JUMPDEST PUSH2 0x247B PUSH1 0x40 DUP4 ADD DUP7 PUSH2 0x2436 JUMP JUMPDEST PUSH2 0x2488 PUSH1 0x60 DUP4 ADD DUP6 PUSH2 0x1D19 JUMP JUMPDEST PUSH2 0x2495 PUSH1 0x80 DUP4 ADD DUP5 PUSH2 0x1D19 JUMP JUMPDEST SWAP7 SWAP6 POP POP POP POP POP POP JUMP JUMPDEST PUSH1 0x0 PUSH1 0x3 SWAP1 POP SWAP2 SWAP1 POP JUMP JUMPDEST PUSH1 0x0 DUP2 SWAP1 POP SWAP3 SWAP2 POP POP JUMP JUMPDEST PUSH1 0x0 DUP2 SWAP1 POP SWAP2 SWAP1 POP JUMP JUMPDEST PUSH2 0x24C8 DUP2 PUSH2 0x1CA4 JUMP JUMPDEST DUP3 MSTORE POP POP JUMP JUMPDEST PUSH1 0x40 DUP3 ADD PUSH1 0x0 DUP3 ADD MLOAD PUSH2 0x24E4 PUSH1 0x0 DUP6 ADD DUP3 PUSH2 0x24BF JUMP JUMPDEST POP PUSH1 0x20 DUP3 ADD MLOAD PUSH2 0x24F7 PUSH1 0x20 DUP6 ADD DUP3 PUSH2 0x21CF JUMP JUMPDEST POP POP POP POP JUMP JUMPDEST PUSH1 0x0 PUSH2 0x2509 DUP4 DUP4 PUSH2 0x24CE JUMP JUMPDEST PUSH1 0x40 DUP4 ADD SWAP1 POP SWAP3 SWAP2 POP POP JUMP JUMPDEST PUSH1 0x0 PUSH1 0x20 DUP3 ADD SWAP1 POP SWAP2 SWAP1 POP JUMP JUMPDEST PUSH2 0x252B DUP2 PUSH2 0x249F JUMP JUMPDEST PUSH2 0x2535 DUP2 DUP5 PUSH2 0x24AA JUMP JUMPDEST SWAP3 POP PUSH2 0x2540 DUP3 PUSH2 0x24B5 JUMP JUMPDEST DUP1 PUSH1 0x0 JUMPDEST DUP4 DUP2 LT ISZERO PUSH2 0x2571 JUMPI DUP2 MLOAD PUSH2 0x2558 DUP8 DUP3 PUSH2 0x24FD JUMP JUMPDEST SWAP7 POP PUSH2 0x2563 DUP4 PUSH2 0x2515 JUMP JUMPDEST SWAP3 POP POP PUSH1 0x1 DUP2 ADD SWAP1 POP PUSH2 0x2544 JUMP JUMPDEST POP POP POP POP POP POP JUMP JUMPDEST PUSH1 0x0 PUSH1 0xE0 DUP3 ADD SWAP1 POP PUSH2 0x258E PUSH1 0x0 DUP4 ADD DUP6 PUSH2 0x2522 JUMP JUMPDEST DUP2 DUP2 SUB PUSH1 0xC0 DUP4 ADD MSTORE PUSH2 0x25A0 DUP2 DUP5 PUSH2 0x23F1 JUMP JUMPDEST SWAP1 POP SWAP4 SWAP3 POP POP POP JUMP JUMPDEST PUSH32 0x4F6E6C792061646D696E732063616E2063616C6C20746869732066756E637469 PUSH1 0x0 DUP3 ADD MSTORE PUSH32 0x6F6E000000000000000000000000000000000000000000000000000000000000 PUSH1 0x20 DUP3 ADD MSTORE POP JUMP JUMPDEST PUSH1 0x0 PUSH2 0x2605 PUSH1 0x22 DUP4 PUSH2 0x23B6 JUMP JUMPDEST SWAP2 POP PUSH2 0x2610 DUP3 PUSH2 0x25A9 JUMP JUMPDEST PUSH1 0x40 DUP3 ADD SWAP1 POP SWAP2 SWAP1 POP JUMP JUMPDEST PUSH1 0x0 PUSH1 0x20 DUP3 ADD SWAP1 POP DUP2 DUP2 SUB PUSH1 0x0 DUP4 ADD MSTORE PUSH2 0x2634 DUP2 PUSH2 0x25F8 JUMP JUMPDEST SWAP1 POP SWAP2 SWAP1 POP JUMP JUMPDEST PUSH32 0x4F6E6C79206F776E65722063616E2063616C6C20746869732066756E6374696F PUSH1 0x0 DUP3 ADD MSTORE PUSH32 0x6E2E000000000000000000000000000000000000000000000000000000000000 PUSH1 0x20 DUP3 ADD MSTORE POP JUMP JUMPDEST PUSH1 0x0 PUSH2 0x2697 PUSH1 0x22 DUP4 PUSH2 0x23B6 JUMP JUMPDEST SWAP2 POP PUSH2 0x26A2 DUP3 PUSH2 0x263B JUMP JUMPDEST PUSH1 0x40 DUP3 ADD SWAP1 POP SWAP2 SWAP1 POP JUMP JUMPDEST PUSH1 0x0 PUSH1 0x20 DUP3 ADD SWAP1 POP DUP2 DUP2 SUB PUSH1 0x0 DUP4 ADD MSTORE PUSH2 0x26C6 DUP2 PUSH2 0x268A JUMP JUMPDEST SWAP1 POP SWAP2 SWAP1 POP JUMP JUMPDEST PUSH32 0x496E636F727265637420656E747279206665652E000000000000000000000000 PUSH1 0x0 DUP3 ADD MSTORE POP JUMP JUMPDEST PUSH1 0x0 PUSH2 0x2703 PUSH1 0x14 DUP4 PUSH2 0x23B6 JUMP JUMPDEST SWAP2 POP PUSH2 0x270E DUP3 PUSH2 0x26CD JUMP JUMPDEST PUSH1 0x20 DUP3 ADD SWAP1 POP SWAP2 SWAP1 POP JUMP JUMPDEST PUSH1 0x0 PUSH1 0x20 DUP3 ADD SWAP1 POP DUP2 DUP2 SUB PUSH1 0x0 DUP4 ADD MSTORE PUSH2 0x2732 DUP2 PUSH2 0x26F6 JUMP JUMPDEST SWAP1 POP SWAP2 SWAP1 POP JUMP JUMPDEST PUSH32 0x54686973206368616C6C656E6765206973206E6F74206163746976652E000000 PUSH1 0x0 DUP3 ADD MSTORE POP JUMP JUMPDEST PUSH1 0x0 PUSH2 0x276F PUSH1 0x1D DUP4 PUSH2 0x23B6 JUMP JUMPDEST SWAP2 POP PUSH2 0x277A DUP3 PUSH2 0x2739 JUMP JUMPDEST PUSH1 0x20 DUP3 ADD SWAP1 POP SWAP2 SWAP1 POP JUMP JUMPDEST PUSH1 0x0 PUSH1 0x20 DUP3 ADD SWAP1 POP DUP2 DUP2 SUB PUSH1 0x0 DUP4 ADD MSTORE PUSH2 0x279E DUP2 PUSH2 0x2762 JUMP JUMPDEST SWAP1 POP SWAP2 SWAP1 POP JUMP JUMPDEST PUSH32 0x4E487B7100000000000000000000000000000000000000000000000000000000 PUSH1 0x0 MSTORE PUSH1 0x32 PUSH1 0x4 MSTORE PUSH1 0x24 PUSH1 0x0 REVERT JUMPDEST PUSH32 0x4E487B7100000000000000000000000000000000000000000000000000000000 PUSH1 0x0 MSTORE PUSH1 0x22 PUSH1 0x4 MSTORE PUSH1 0x24 PUSH1 0x0 REVERT JUMPDEST PUSH1 0x0 PUSH1 0x2 DUP3 DIV SWAP1 POP PUSH1 0x1 DUP3 AND DUP1 PUSH2 0x281B JUMPI PUSH1 0x7F DUP3 AND SWAP2 POP JUMPDEST PUSH1 0x20 DUP3 LT DUP2 SUB PUSH2 0x282E JUMPI PUSH2 0x282D PUSH2 0x27D4 JUMP JUMPDEST JUMPDEST POP SWAP2 SWAP1 POP JUMP JUMPDEST PUSH1 0x0 DUP2 SWAP1 POP DUP2 PUSH1 0x0 MSTORE PUSH1 0x20 PUSH1 0x0 KECCAK256 SWAP1 POP SWAP2 SWAP1 POP JUMP JUMPDEST PUSH1 0x0 DUP2 SLOAD PUSH2 0x2856 DUP2 PUSH2 0x2803 JUMP JUMPDEST PUSH2 0x2860 DUP2 DUP7 PUSH2 0x23B6 JUMP JUMPDEST SWAP5 POP PUSH1 0x1 DUP3 AND PUSH1 0x0 DUP2 EQ PUSH2 0x287B JUMPI PUSH1 0x1 DUP2 EQ PUSH2 0x2891 JUMPI PUSH2 0x28C4 JUMP JUMPDEST PUSH1 0xFF NOT DUP4 AND DUP7 MSTORE DUP2 ISZERO ISZERO PUSH1 0x20 MUL DUP7 ADD SWAP4 POP PUSH2 0x28C4 JUMP JUMPDEST PUSH2 0x289A DUP6 PUSH2 0x2834 JUMP JUMPDEST PUSH1 0x0 JUMPDEST DUP4 DUP2 LT ISZERO PUSH2 0x28BC JUMPI DUP2 SLOAD DUP2 DUP10 ADD MSTORE PUSH1 0x1 DUP3 ADD SWAP2 POP PUSH1 0x20 DUP2 ADD SWAP1 POP PUSH2 0x289D JUMP JUMPDEST DUP1 DUP9 ADD SWAP6 POP POP POP JUMPDEST POP POP POP SWAP3 SWAP2 POP POP JUMP JUMPDEST PUSH1 0x0 PUSH1 0x20 DUP3 ADD SWAP1 POP DUP2 DUP2 SUB PUSH1 0x0 DUP4 ADD MSTORE PUSH2 0x28E7 DUP2 DUP5 PUSH2 0x2849 JUMP JUMPDEST SWAP1 POP SWAP3 SWAP2 POP POP JUMP JUMPDEST PUSH32 0x4E487B7100000000000000000000000000000000000000000000000000000000 PUSH1 0x0 MSTORE PUSH1 0x11 PUSH1 0x4 MSTORE PUSH1 0x24 PUSH1 0x0 REVERT JUMPDEST PUSH1 0x0 PUSH2 0x2929 DUP3 PUSH2 0x1D0F JUMP JUMPDEST SWAP2 POP PUSH2 0x2934 DUP4 PUSH2 0x1D0F JUMP JUMPDEST SWAP3 POP DUP3 DUP3 ADD SWAP1 POP DUP1 DUP3 GT ISZERO PUSH2 0x294C JUMPI PUSH2 0x294B PUSH2 0x28EF JUMP JUMPDEST JUMPDEST SWAP3 SWAP2 POP POP JUMP JUMPDEST PUSH1 0x0 PUSH2 0x295D DUP3 PUSH2 0x1D0F JUMP JUMPDEST SWAP2 POP PUSH2 0x2968 DUP4 PUSH2 0x1D0F JUMP JUMPDEST SWAP3 POP DUP3 DUP3 SUB SWAP1 POP DUP2 DUP2 GT ISZERO PUSH2 0x2980 JUMPI PUSH2 0x297F PUSH2 0x28EF JUMP JUMPDEST JUMPDEST SWAP3 SWAP2 POP POP JUMP JUMPDEST PUSH1 0x0 DUP2 SWAP1 POP SWAP3 SWAP2 POP POP JUMP JUMPDEST PUSH2 0x299A DUP2 PUSH2 0x21AF JUMP JUMPDEST PUSH2 0x29A4 DUP2 DUP5 PUSH2 0x2986 JUMP JUMPDEST SWAP3 POP PUSH2 0x29AF DUP3 PUSH2 0x21C5 JUMP JUMPDEST DUP1 PUSH1 0x0 JUMPDEST DUP4 DUP2 LT ISZERO PUSH2 0x29E0 JUMPI DUP2 MLOAD PUSH2 0x29C7 DUP8 DUP3 PUSH2 0x21DE JUMP JUMPDEST SWAP7 POP PUSH2 0x29D2 DUP4 PUSH2 0x21F6 JUMP JUMPDEST SWAP3 POP POP PUSH1 0x1 DUP2 ADD SWAP1 POP PUSH2 0x29B3 JUMP JUMPDEST POP POP POP POP POP POP JUMP JUMPDEST PUSH1 0x0 PUSH1 0x80 DUP3 ADD SWAP1 POP PUSH2 0x29FD PUSH1 0x0 DUP4 ADD DUP7 PUSH2 0x2991 JUMP JUMPDEST PUSH2 0x2A0A PUSH1 0x40 DUP4 ADD DUP6 PUSH2 0x1D19 JUMP JUMPDEST PUSH2 0x2A17 PUSH1 0x60 DUP4 ADD DUP5 PUSH2 0x1D19 JUMP JUMPDEST SWAP5 SWAP4 POP POP POP POP JUMP JUMPDEST PUSH1 0x0 PUSH1 0x20 PUSH1 0x1F DUP4 ADD DIV SWAP1 POP SWAP2 SWAP1 POP JUMP JUMPDEST PUSH1 0x0 DUP3 DUP3 SHL SWAP1 POP SWAP3 SWAP2 POP POP JUMP JUMPDEST PUSH1 0x0 PUSH1 0x8 DUP4 MUL PUSH2 0x2A6C PUSH32 0xFFFFFFFFFFFFFFFFFFFFFFFFFFFFFFFFFFFFFFFFFFFFFFFFFFFFFFFFFFFFFFFF DUP3 PUSH2 0x2A2F JUMP JUMPDEST PUSH2 0x2A76 DUP7 DUP4 PUSH2 0x2A2F JUMP JUMPDEST SWAP6 POP DUP1 NOT DUP5 AND SWAP4 POP DUP1 DUP7 AND DUP5 OR SWAP3 POP POP POP SWAP4 SWAP3 POP POP POP JUMP JUMPDEST PUSH1 0x0 DUP2 SWAP1 POP SWAP2 SWAP1 POP JUMP JUMPDEST PUSH1 0x0 PUSH2 0x2AB3 PUSH2 0x2AAE PUSH2 0x2AA9 DUP5 PUSH2 0x1D0F JUMP JUMPDEST PUSH2 0x2A8E JUMP JUMPDEST PUSH2 0x1D0F JUMP JUMPDEST SWAP1 POP SWAP2 SWAP1 POP JUMP JUMPDEST PUSH1 0x0 DUP2 SWAP1 POP SWAP2 SWAP1 POP JUMP JUMPDEST PUSH2 0x2ACD DUP4 PUSH2 0x2A98 JUMP JUMPDEST PUSH2 0x2AE1 PUSH2 0x2AD9 DUP3 PUSH2 0x2ABA JUMP JUMPDEST DUP5 DUP5 SLOAD PUSH2 0x2A3C JUMP JUMPDEST DUP3 SSTORE POP POP POP POP JUMP JUMPDEST PUSH1 0x0 SWAP1 JUMP JUMPDEST PUSH2 0x2AF6 PUSH2 0x2AE9 JUMP JUMPDEST PUSH2 0x2B01 DUP2 DUP5 DUP5 PUSH2 0x2AC4 JUMP JUMPDEST POP POP POP JUMP JUMPDEST JUMPDEST DUP2 DUP2 LT ISZERO PUSH2 0x2B25 JUMPI PUSH2 0x2B1A PUSH1 0x0 DUP3 PUSH2 0x2AEE JUMP JUMPDEST PUSH1 0x1 DUP2 ADD SWAP1 POP PUSH2 0x2B07 JUMP JUMPDEST POP POP JUMP JUMPDEST PUSH1 0x1F DUP3 GT ISZERO PUSH2 0x2B6A JUMPI PUSH2 0x2B3B DUP2 PUSH2 0x2834 JUMP JUMPDEST PUSH2 0x2B44 DUP5 PUSH2 0x2A1F JUMP JUMPDEST DUP2 ADD PUSH1 0x20 DUP6 LT ISZERO PUSH2 0x2B53 JUMPI DUP2 SWAP1 POP JUMPDEST PUSH2 0x2B67 PUSH2 0x2B5F DUP6 PUSH2 0x2A1F JUMP JUMPDEST DUP4 ADD DUP3 PUSH2 0x2B06 JUMP JUMPDEST POP POP JUMPDEST POP POP POP JUMP JUMPDEST PUSH1 0x0 DUP3 DUP3 SHR SWAP1 POP SWAP3 SWAP2 POP POP JUMP JUMPDEST PUSH1 0x0 PUSH2 0x2B8D PUSH1 0x0 NOT DUP5 PUSH1 0x8 MUL PUSH2 0x2B6F JUMP JUMPDEST NOT DUP1 DUP4 AND SWAP2 POP POP SWAP3 SWAP2 POP POP JUMP JUMPDEST PUSH1 0x0 PUSH2 0x2BA6 DUP4 DUP4 PUSH2 0x2B7C JUMP JUMPDEST SWAP2 POP DUP3 PUSH1 0x2 MUL DUP3 OR SWAP1 POP SWAP3 SWAP2 POP POP JUMP JUMPDEST PUSH2 0x2BBF DUP3 PUSH2 0x23AB JUMP JUMPDEST PUSH8 0xFFFFFFFFFFFFFFFF DUP2 GT ISZERO PUSH2 0x2BD8 JUMPI PUSH2 0x2BD7 PUSH2 0x1DAE JUMP JUMPDEST JUMPDEST PUSH2 0x2BE2 DUP3 SLOAD PUSH2 0x2803 JUMP JUMPDEST PUSH2 0x2BED DUP3 DUP3 DUP6 PUSH2 0x2B29 JUMP JUMPDEST PUSH1 0x0 PUSH1 0x20 SWAP1 POP PUSH1 0x1F DUP4 GT PUSH1 0x1 DUP2 EQ PUSH2 0x2C20 JUMPI PUSH1 0x0 DUP5 ISZERO PUSH2 0x2C0E JUMPI DUP3 DUP8 ADD MLOAD SWAP1 POP JUMPDEST PUSH2 0x2C18 DUP6 DUP3 PUSH2 0x2B9A JUMP JUMPDEST DUP7 SSTORE POP PUSH2 0x2C80 JUMP JUMPDEST PUSH1 0x1F NOT DUP5 AND PUSH2 0x2C2E DUP7 PUSH2 0x2834 JUMP JUMPDEST PUSH1 0x0 JUMPDEST DUP3 DUP2 LT ISZERO PUSH2 0x2C56 JUMPI DUP5 DUP10 ADD MLOAD DUP3 SSTORE PUSH1 0x1 DUP3 ADD SWAP2 POP PUSH1 0x20 DUP6 ADD SWAP5 POP PUSH1 0x20 DUP2 ADD SWAP1 POP PUSH2 0x2C31 JUMP JUMPDEST DUP7 DUP4 LT ISZERO PUSH2 0x2C73 JUMPI DUP5 DUP10 ADD MLOAD PUSH2 0x2C6F PUSH1 0x1F DUP10 AND DUP3 PUSH2 0x2B7C JUMP JUMPDEST DUP4 SSTORE POP JUMPDEST PUSH1 0x1 PUSH1 0x2 DUP9 MUL ADD DUP9 SSTORE POP POP POP JUMPDEST POP POP POP POP POP POP JUMP JUMPDEST PUSH1 0x0 DUP2 SWAP1 POP SWAP2 SWAP1 POP JUMP JUMPDEST PUSH1 0x0 PUSH2 0x2CAD PUSH2 0x2CA8 PUSH2 0x2CA3 DUP5 PUSH2 0x2C88 JUMP JUMPDEST PUSH2 0x2A8E JUMP JUMPDEST PUSH2 0x1D0F JUMP JUMPDEST SWAP1 POP SWAP2 SWAP1 POP JUMP JUMPDEST PUSH2 0x2CBD DUP2 PUSH2 0x2C92 JUMP JUMPDEST DUP3 MSTORE POP POP JUMP JUMPDEST PUSH1 0x0 PUSH1 0x40 DUP3 ADD SWAP1 POP DUP2 DUP2 SUB PUSH1 0x0 DUP4 ADD MSTORE PUSH2 0x2CDD DUP2 DUP6 PUSH2 0x23F1 JUMP JUMPDEST SWAP1 POP PUSH2 0x2CEC PUSH1 0x20 DUP4 ADD DUP5 PUSH2 0x2CB4 JUMP JUMPDEST SWAP4 SWAP3 POP POP POP JUMP JUMPDEST PUSH32 0x4368616C6C656E676520646F6573206E6F742065786973742E00000000000000 PUSH1 0x0 DUP3 ADD MSTORE POP JUMP JUMPDEST PUSH1 0x0 PUSH2 0x2D29 PUSH1 0x19 DUP4 PUSH2 0x23B6 JUMP JUMPDEST SWAP2 POP PUSH2 0x2D34 DUP3 PUSH2 0x2CF3 JUMP JUMPDEST PUSH1 0x20 DUP3 ADD SWAP1 POP SWAP2 SWAP1 POP JUMP JUMPDEST PUSH1 0x0 PUSH1 0x20 DUP3 ADD SWAP1 POP DUP2 DUP2 SUB PUSH1 0x0 DUP4 ADD MSTORE PUSH2 0x2D58 DUP2 PUSH2 0x2D1C JUMP JUMPDEST SWAP1 POP SWAP2 SWAP1 POP JUMP JUMPDEST PUSH1 0x0 PUSH2 0x2D6A DUP3 PUSH2 0x1D0F JUMP JUMPDEST SWAP2 POP PUSH32 0xFFFFFFFFFFFFFFFFFFFFFFFFFFFFFFFFFFFFFFFFFFFFFFFFFFFFFFFFFFFFFFFF DUP3 SUB PUSH2 0x2D9C JUMPI PUSH2 0x2D9B PUSH2 0x28EF JUMP JUMPDEST JUMPDEST PUSH1 0x1 DUP3 ADD SWAP1 POP SWAP2 SWAP1 POP JUMP JUMPDEST PUSH32 0x4368616C6C656E676520686173206E6F742073746172746564206F7220686173 PUSH1 0x0 DUP3 ADD MSTORE PUSH32 0x206E6F7420656E64656420796574000000000000000000000000000000000000 PUSH1 0x20 DUP3 ADD MSTORE POP JUMP JUMPDEST PUSH1 0x0 PUSH2 0x2E03 PUSH1 0x2E DUP4 PUSH2 0x23B6 JUMP JUMPDEST SWAP2 POP PUSH2 0x2E0E DUP3 PUSH2 0x2DA7 JUMP JUMPDEST PUSH1 0x40 DUP3 ADD SWAP1 POP SWAP2 SWAP1 POP JUMP JUMPDEST PUSH1 0x0 PUSH1 0x20 DUP3 ADD SWAP1 POP DUP2 DUP2 SUB PUSH1 0x0 DUP4 ADD MSTORE PUSH2 0x2E32 DUP2 PUSH2 0x2DF6 JUMP JUMPDEST SWAP1 POP SWAP2 SWAP1 POP JUMP JUMPDEST PUSH1 0x0 PUSH2 0x2E44 DUP3 PUSH2 0x1D0F JUMP JUMPDEST SWAP2 POP PUSH2 0x2E4F DUP4 PUSH2 0x1D0F JUMP JUMPDEST SWAP3 POP DUP3 DUP3 MUL PUSH2 0x2E5D DUP2 PUSH2 0x1D0F JUMP JUMPDEST SWAP2 POP DUP3 DUP3 DIV DUP5 EQ DUP4 ISZERO OR PUSH2 0x2E74 JUMPI PUSH2 0x2E73 PUSH2 0x28EF JUMP JUMPDEST JUMPDEST POP SWAP3 SWAP2 POP POP JUMP JUMPDEST PUSH32 0x4E487B7100000000000000000000000000000000000000000000000000000000 PUSH1 0x0 MSTORE PUSH1 0x12 PUSH1 0x4 MSTORE PUSH1 0x24 PUSH1 0x0 REVERT JUMPDEST PUSH1 0x0 PUSH2 0x2EB5 DUP3 PUSH2 0x1D0F JUMP JUMPDEST SWAP2 POP PUSH2 0x2EC0 DUP4 PUSH2 0x1D0F JUMP JUMPDEST SWAP3 POP DUP3 PUSH2 0x2ED0 JUMPI PUSH2 0x2ECF PUSH2 0x2E7B JUMP JUMPDEST JUMPDEST DUP3 DUP3 DIV SWAP1 POP SWAP3 SWAP2 POP POP JUMP JUMPDEST PUSH1 0x0 PUSH1 0xFF DUP3 AND SWAP1 POP SWAP2 SWAP1 POP JUMP JUMPDEST PUSH1 0x0 PUSH2 0x2EF3 DUP3 PUSH2 0x2EDB JUMP JUMPDEST SWAP2 POP PUSH2 0x2EFE DUP4 PUSH2 0x2EDB JUMP JUMPDEST SWAP3 POP DUP3 DUP3 ADD SWAP1 POP PUSH1 0xFF DUP2 GT ISZERO PUSH2 0x2F17 JUMPI PUSH2 0x2F16 PUSH2 0x28EF JUMP JUMPDEST JUMPDEST SWAP3 SWAP2 POP POP JUMP JUMPDEST PUSH2 0x2F26 DUP2 PUSH2 0x2EDB JUMP JUMPDEST DUP3 MSTORE POP POP JUMP JUMPDEST PUSH1 0x0 PUSH1 0x40 DUP3 ADD SWAP1 POP PUSH2 0x2F41 PUSH1 0x0 DUP4 ADD DUP6 PUSH2 0x1D19 JUMP JUMPDEST PUSH2 0x2F4E PUSH1 0x20 DUP4 ADD DUP5 PUSH2 0x2F1D JUMP JUMPDEST SWAP4 SWAP3 POP POP POP JUMP JUMPDEST PUSH1 0x0 PUSH2 0x2F60 DUP3 PUSH2 0x2EDB JUMP JUMPDEST SWAP2 POP PUSH1 0xFF DUP3 SUB PUSH2 0x2F73 JUMPI PUSH2 0x2F72 PUSH2 0x28EF JUMP JUMPDEST JUMPDEST PUSH1 0x1 DUP3 ADD SWAP1 POP SWAP2 SWAP1 POP JUMP JUMPDEST PUSH1 0x0 PUSH2 0x2F89 DUP3 PUSH2 0x1D0F JUMP JUMPDEST SWAP2 POP PUSH1 0x0 DUP3 SUB PUSH2 0x2F9C JUMPI PUSH2 0x2F9B PUSH2 0x28EF JUMP JUMPDEST JUMPDEST PUSH1 0x1 DUP3 SUB SWAP1 POP SWAP2 SWAP1 POP JUMP INVALID LOG2 PUSH5 0x6970667358 0x22 SLT KECCAK256 STATICCALL 0xCF PREVRANDAO STATICCALL NUMBER PUSH12 0x1F8940CE4043E9098443511D SHR MULMOD 0x2D SELFBALANCE 0xCE 0xE3 PUSH20 0xCD7BB2C9225F9C64736F6C634300081300330000 "},"methodIdentifiers":{"addAdmin(address)":"70480275","challengeWinners(uint256,uint256)":"7460ddee","createChallenge((string,string,uint256[2],uint256[2],uint256[2]))":"32d3b3fc","currentChallengeIndex()":"cc0b07a7","entryFee()":"072ea61c","getChallengePublicInfo(uint256)":"9046bbb5","getGuessCount(address)":"04b1142c","getRevealedChallengeDetails(uint256)":"eebcec7e","owner()":"8da5cb5b","removeAdmin(address)":"1785f53c","submitGuess(uint256,uint256[2])":"2541dabc","viewMyGuesses(uint256)":"7e621ac4"}}}}}